{
  "_format": "hh-sol-artifact-1",
  "contractName": "Shiharai",
  "sourceName": "contracts/Shiharai.sol",
  "abi": [
    {
      "inputs": [
        {
          "internalType": "address",
          "name": "_erc20",
          "type": "address"
        }
      ],
      "stateMutability": "nonpayable",
      "type": "constructor"
    },
    {
      "anonymous": false,
      "inputs": [
        {
          "indexed": false,
          "internalType": "address",
          "name": "with",
          "type": "address"
        },
        {
          "indexed": false,
          "internalType": "uint256",
          "name": "amount",
          "type": "uint256"
        },
        {
          "indexed": false,
          "internalType": "uint256",
          "name": "term",
          "type": "uint256"
        },
        {
          "indexed": false,
          "internalType": "uint256",
          "name": "timestamp",
          "type": "uint256"
        }
      ],
      "name": "Agreed",
      "type": "event"
    },
    {
      "anonymous": false,
      "inputs": [
        {
          "indexed": true,
          "internalType": "address",
          "name": "by",
          "type": "address"
        },
        {
          "indexed": true,
          "internalType": "address",
          "name": "token",
          "type": "address"
        },
        {
          "indexed": false,
          "internalType": "uint256",
          "name": "amount",
          "type": "uint256"
        }
      ],
      "name": "Claimed",
      "type": "event"
    },
    {
      "anonymous": false,
      "inputs": [
        {
          "indexed": true,
          "internalType": "address",
          "name": "issuer",
          "type": "address"
        },
        {
          "indexed": false,
          "internalType": "address",
          "name": "token",
          "type": "address"
        },
        {
          "indexed": false,
          "internalType": "uint256",
          "name": "amount",
          "type": "uint256"
        }
      ],
      "name": "Deposit",
      "type": "event"
    },
    {
      "anonymous": false,
      "inputs": [
        {
          "indexed": true,
          "internalType": "uint256",
          "name": "id",
          "type": "uint256"
        },
        {
          "indexed": true,
          "internalType": "address",
          "name": "issuer",
          "type": "address"
        },
        {
          "indexed": true,
          "internalType": "address",
          "name": "with",
          "type": "address"
        },
        {
          "indexed": false,
          "internalType": "address",
          "name": "token",
          "type": "address"
        },
        {
          "indexed": false,
          "internalType": "uint256",
          "name": "amount",
          "type": "uint256"
        },
        {
          "indexed": false,
          "internalType": "uint256",
          "name": "paysAt",
          "type": "uint256"
        }
      ],
      "name": "IssuedAgreement",
      "type": "event"
    },
    {
      "inputs": [
        {
          "internalType": "address",
          "name": "_protocol",
          "type": "address"
        }
      ],
      "name": "addLendingProtocol",
      "outputs": [],
      "stateMutability": "nonpayable",
      "type": "function"
    },
    {
      "inputs": [
        {
          "internalType": "uint256",
          "name": "",
          "type": "uint256"
        }
      ],
      "name": "agreements",
      "outputs": [
        {
          "internalType": "address",
          "name": "issuer",
          "type": "address"
        },
        {
          "internalType": "address",
          "name": "undertaker",
          "type": "address"
        },
        {
          "internalType": "bytes32",
          "name": "name",
          "type": "bytes32"
        },
        {
          "internalType": "address",
          "name": "payment",
          "type": "address"
        },
        {
          "internalType": "uint256",
          "name": "id",
          "type": "uint256"
        },
        {
          "internalType": "uint256",
          "name": "amount",
          "type": "uint256"
        },
        {
          "internalType": "uint256",
          "name": "term",
          "type": "uint256"
        },
        {
          "internalType": "uint256",
          "name": "issuedAt",
          "type": "uint256"
        },
        {
          "internalType": "uint256",
          "name": "confirmedAt",
          "type": "uint256"
        },
        {
          "internalType": "uint256",
          "name": "continuesAt",
          "type": "uint256"
        },
        {
          "internalType": "uint256",
          "name": "paysAt",
          "type": "uint256"
        }
      ],
      "stateMutability": "view",
      "type": "function"
    },
    {
      "inputs": [
        {
          "internalType": "address",
          "name": "_spender",
          "type": "address"
        }
      ],
      "name": "approveof",
      "outputs": [],
      "stateMutability": "nonpayable",
      "type": "function"
    },
    {
      "inputs": [
        {
          "internalType": "uint256",
          "name": "_id",
          "type": "uint256"
        }
      ],
      "name": "claim",
      "outputs": [],
      "stateMutability": "nonpayable",
      "type": "function"
    },
    {
      "inputs": [],
      "name": "claimForLendingProctol",
      "outputs": [],
      "stateMutability": "nonpayable",
      "type": "function"
    },
    {
      "inputs": [
        {
          "internalType": "uint256",
          "name": "_id",
          "type": "uint256"
        }
      ],
      "name": "confirmAgreement",
      "outputs": [],
      "stateMutability": "nonpayable",
      "type": "function"
    },
    {
      "inputs": [
        {
          "internalType": "uint256",
          "name": "_id",
          "type": "uint256"
        }
      ],
      "name": "continueAgreement",
      "outputs": [],
      "stateMutability": "nonpayable",
      "type": "function"
    },
    {
      "inputs": [
        {
          "internalType": "uint256[]",
          "name": "_ids",
          "type": "uint256[]"
        }
      ],
      "name": "continueAgreements",
      "outputs": [],
      "stateMutability": "nonpayable",
      "type": "function"
    },
    {
      "inputs": [
        {
          "internalType": "address",
          "name": "_token",
          "type": "address"
        },
        {
          "internalType": "uint256",
          "name": "_amount",
          "type": "uint256"
        }
      ],
      "name": "deposit",
      "outputs": [],
      "stateMutability": "nonpayable",
      "type": "function"
    },
    {
      "inputs": [
        {
          "internalType": "bytes32",
          "name": "_name",
          "type": "bytes32"
        },
        {
          "internalType": "address",
          "name": "_with",
          "type": "address"
        },
        {
          "internalType": "address",
          "name": "_token",
          "type": "address"
        },
        {
          "internalType": "uint256",
          "name": "_amount",
          "type": "uint256"
        },
        {
          "internalType": "uint256",
          "name": "_term",
          "type": "uint256"
        },
        {
          "internalType": "uint256",
          "name": "_paysAt",
          "type": "uint256"
        }
      ],
      "name": "depositAndissueAgreement",
      "outputs": [],
      "stateMutability": "nonpayable",
      "type": "function"
    },
    {
      "inputs": [
        {
          "internalType": "address",
          "name": "",
          "type": "address"
        },
        {
          "internalType": "address",
          "name": "",
          "type": "address"
        }
      ],
      "name": "depositedAmountMap",
      "outputs": [
        {
          "internalType": "uint256",
          "name": "",
          "type": "uint256"
        }
      ],
      "stateMutability": "view",
      "type": "function"
    },
    {
      "inputs": [
        {
          "internalType": "address",
          "name": "protocol",
          "type": "address"
        }
      ],
      "name": "getIssuersAgreements",
      "outputs": [
        {
          "components": [
            {
              "internalType": "address",
              "name": "issuer",
              "type": "address"
            },
            {
              "internalType": "address",
              "name": "undertaker",
              "type": "address"
            },
            {
              "internalType": "bytes32",
              "name": "name",
              "type": "bytes32"
            },
            {
              "internalType": "address",
              "name": "payment",
              "type": "address"
            },
            {
              "internalType": "uint256",
              "name": "id",
              "type": "uint256"
            },
            {
              "internalType": "uint256",
              "name": "amount",
              "type": "uint256"
            },
            {
              "internalType": "uint256",
              "name": "term",
              "type": "uint256"
            },
            {
              "internalType": "uint256",
              "name": "issuedAt",
              "type": "uint256"
            },
            {
              "internalType": "uint256",
              "name": "confirmedAt",
              "type": "uint256"
            },
            {
              "internalType": "uint256",
              "name": "continuesAt",
              "type": "uint256"
            },
            {
              "internalType": "uint256",
              "name": "paysAt",
              "type": "uint256"
            }
          ],
          "internalType": "struct Shiharai.Agreement[]",
          "name": "",
          "type": "tuple[]"
        }
      ],
      "stateMutability": "view",
      "type": "function"
    },
    {
      "inputs": [
        {
          "internalType": "address",
          "name": "_taker",
          "type": "address"
        }
      ],
      "name": "getUnderTakersAgreements",
      "outputs": [
        {
          "components": [
            {
              "internalType": "address",
              "name": "issuer",
              "type": "address"
            },
            {
              "internalType": "address",
              "name": "undertaker",
              "type": "address"
            },
            {
              "internalType": "bytes32",
              "name": "name",
              "type": "bytes32"
            },
            {
              "internalType": "address",
              "name": "payment",
              "type": "address"
            },
            {
              "internalType": "uint256",
              "name": "id",
              "type": "uint256"
            },
            {
              "internalType": "uint256",
              "name": "amount",
              "type": "uint256"
            },
            {
              "internalType": "uint256",
              "name": "term",
              "type": "uint256"
            },
            {
              "internalType": "uint256",
              "name": "issuedAt",
              "type": "uint256"
            },
            {
              "internalType": "uint256",
              "name": "confirmedAt",
              "type": "uint256"
            },
            {
              "internalType": "uint256",
              "name": "continuesAt",
              "type": "uint256"
            },
            {
              "internalType": "uint256",
              "name": "paysAt",
              "type": "uint256"
            }
          ],
          "internalType": "struct Shiharai.Agreement[]",
          "name": "",
          "type": "tuple[]"
        }
      ],
      "stateMutability": "view",
      "type": "function"
    },
    {
      "inputs": [
        {
          "internalType": "bytes32",
          "name": "_name",
          "type": "bytes32"
        },
        {
          "internalType": "address",
          "name": "_with",
          "type": "address"
        },
        {
          "internalType": "address",
          "name": "_token",
          "type": "address"
        },
        {
          "internalType": "uint256",
          "name": "_amount",
          "type": "uint256"
        },
        {
          "internalType": "uint256",
          "name": "_term",
          "type": "uint256"
        },
        {
          "internalType": "uint256",
          "name": "_paysAt",
          "type": "uint256"
        }
      ],
      "name": "issueAgreement",
      "outputs": [],
      "stateMutability": "nonpayable",
      "type": "function"
    },
    {
      "inputs": [
        {
          "internalType": "address",
          "name": "",
          "type": "address"
        },
        {
          "internalType": "uint256",
          "name": "",
          "type": "uint256"
        }
      ],
      "name": "issuerAgreementsIds",
      "outputs": [
        {
          "internalType": "uint256",
          "name": "",
          "type": "uint256"
        }
      ],
      "stateMutability": "view",
      "type": "function"
    },
    {
      "inputs": [
        {
          "internalType": "uint256",
          "name": "_id",
          "type": "uint256"
        },
        {
          "internalType": "uint256",
          "name": "payDay",
          "type": "uint256"
        }
      ],
      "name": "modifyPayDay",
      "outputs": [],
      "stateMutability": "nonpayable",
      "type": "function"
    },
    {
      "inputs": [
        {
          "internalType": "uint256",
          "name": "",
          "type": "uint256"
        }
      ],
      "name": "redeemedAmountMap",
      "outputs": [
        {
          "internalType": "address",
          "name": "token",
          "type": "address"
        },
        {
          "internalType": "uint256",
          "name": "amount",
          "type": "uint256"
        }
      ],
      "stateMutability": "view",
      "type": "function"
    },
    {
      "inputs": [
        {
          "internalType": "address",
          "name": "",
          "type": "address"
        },
        {
          "internalType": "address",
          "name": "",
          "type": "address"
        }
      ],
      "name": "reservedAmount",
      "outputs": [
        {
          "internalType": "uint256",
          "name": "",
          "type": "uint256"
        }
      ],
      "stateMutability": "view",
      "type": "function"
    },
    {
      "inputs": [
        {
          "internalType": "address",
          "name": "_address",
          "type": "address"
        }
      ],
      "name": "setSupportedToken",
      "outputs": [],
      "stateMutability": "nonpayable",
      "type": "function"
    },
    {
      "inputs": [
        {
          "internalType": "address",
          "name": "",
          "type": "address"
        }
      ],
      "name": "supportedTokensMap",
      "outputs": [
        {
          "internalType": "address",
          "name": "",
          "type": "address"
        }
      ],
      "stateMutability": "view",
      "type": "function"
    },
    {
      "inputs": [
        {
          "internalType": "address",
          "name": "",
          "type": "address"
        },
        {
          "internalType": "uint256",
          "name": "",
          "type": "uint256"
        }
      ],
      "name": "undertakenAgreementIds",
      "outputs": [
        {
          "internalType": "uint256",
          "name": "",
          "type": "uint256"
        }
      ],
      "stateMutability": "view",
      "type": "function"
    },
    {
      "inputs": [
        {
          "internalType": "uint256",
          "name": "",
          "type": "uint256"
        }
      ],
      "name": "vestingConditionMap",
      "outputs": [
        {
          "internalType": "uint256",
          "name": "cliff",
          "type": "uint256"
        },
        {
          "internalType": "uint256",
          "name": "duration",
          "type": "uint256"
        },
        {
          "internalType": "uint256",
          "name": "revokeDays",
          "type": "uint256"
        }
      ],
      "stateMutability": "view",
      "type": "function"
    },
    {
      "inputs": [
        {
          "internalType": "address",
          "name": "_with",
          "type": "address"
        }
      ],
      "name": "withdrawalAgreement",
      "outputs": [],
      "stateMutability": "nonpayable",
      "type": "function"
    }
  ],
  "bytecode": "0x608060405234801561001057600080fd5b5060405162002e4838038062002e4883398101604081905261003191610037565b50610065565b600060208284031215610048578081fd5b81516001600160a01b038116811461005e578182fd5b9392505050565b612dd380620000756000396000f3fe60806040523480156200001157600080fd5b5060043610620001695760003560e01c8063853d105e11620000d3578063c5fcfbbc1162000086578063c5fcfbbc146200041c578063ca72595c1462000433578063d345ad571462000481578063dfd5268d1462000498578063eb5c68e714620004af578063f2c3731a14620004c657600080fd5b8063853d105e14620002d357806389e0a68314620001af57806398776efa14620001c8578063b7e3ee8f14620002f9578063bc2f2dcf1462000327578063bd14de96146200033e57600080fd5b8063424690bb116200012c578063424690bb14620001f357806347e7ef24146200024957806353dc781314620002605780635fbd5bed14620001c857806363cdf5dd14620002a55780637c05798c14620002bc57600080fd5b806310ac0adc146200016e57806317c4e3051462000198578063379607f514620001b15780633ecfebcd14620001c85780633f270e6214620001dc575b600080fd5b620001856200017f366004620019c3565b620004f4565b6040519081526020015b60405180910390f35b620001af620001a936600462001ac4565b62000526565b005b620001af620001c236600462001bb2565b62000552565b620001af620001d936600462001968565b50565b620001af620001ed366004620019ef565b62000a13565b620002296200020436600462001bb2565b600460205260009081526040902080546001909101546001600160a01b039091169082565b604080516001600160a01b0390931683526020830191909152016200018f565b620001af6200025a366004620019c3565b62000a6c565b6200028c6200027136600462001968565b6001602052600090815260409020546001600160a01b031681565b6040516001600160a01b0390911681526020016200018f565b62000185620002b6366004620019c3565b62000d02565b620001af620002cd36600462001bb2565b62000d1f565b620002ea620002e436600462001968565b62000e56565b6040516200018f919062001c34565b620001856200030a3660046200198c565b600260209081526000928352604080842090915290825290205481565b620001af6200033836600462001968565b62001013565b620003b86200034f36600462001bb2565b600660208190526000918252604090912080546001820154600283015460038401546004850154600586015496860154600787015460088801546009890154600a909901546001600160a01b039889169a9789169996989095169693959394929391929091908b565b604080516001600160a01b039c8d1681529a8c1660208c01528a0198909852989095166060880152608087019390935260a086019190915260c085015260e0840152610100830152610120820192909252610140810191909152610160016200018f565b620001af6200042d36600462001be4565b62001050565b620004656200044436600462001bb2565b60056020526000908152604090208054600182015460029092015490919083565b604080519384526020840192909252908201526060016200018f565b620001af6200049236600462001bb2565b6200112a565b620002ea620004a936600462001968565b620012e2565b620001af620004c036600462001ac4565b62001496565b62000185620004d73660046200198c565b600360209081526000928352604080842090915290825290205481565b600760205281600052604060002081815481106200051157600080fd5b90600052602060002001600091509150505481565b62000535600080546001019055565b6000546200054981888888888888620014ba565b50505050505050565b6000818152600660205260409020600101546001600160a01b03163314620005c15760405162461bcd60e51b815260206004820152601b60248201527f494e56414c49443a204e4f542054484520554e44455254414b4552000000000060448201526064015b60405180910390fd5b600081815260066020526040812060030154620005e7906001600160a01b031662001722565b600083815260066020526040908190206005015490516370a0823160e01b8152336004820152919250906001600160a01b038316906370a082319060240160206040518083038186803b1580156200063e57600080fd5b505afa15801562000653573d6000803e3d6000fd5b505050506040513d601f19601f8201168201806040525081019062000679919062001bcb565b1015620006c25760405162461bcd60e51b815260206004820152601660248201527518d51bdad95b881a5cc81a5b9cdd59999a58da595b9d60521b6044820152606401620005b8565b6000828152600660205260409020600a0154421015620007255760405162461bcd60e51b815260206004820152601760248201527f494e56414c49443a204245464f524520504159204441590000000000000000006044820152606401620005b8565b6000828152600660205260408082206005015490516323b872dd60e01b815233600482015230602482015260448101919091526001600160a01b038316906323b872dd90606401602060405180830381600087803b1580156200078757600080fd5b505af11580156200079c573d6000803e3d6000fd5b505050506040513d601f19601f82011682018060405250810190620007c2919062001aa2565b9050806200080c5760405162461bcd60e51b815260206004820152601660248201527518d51bdad95b881514905394d191548811905253115160521b6044820152606401620005b8565b60008381526006602052604090819020600501549051630852cd8d60e31b815260048101919091526001600160a01b038316906342966c6890602401600060405180830381600087803b1580156200086357600080fd5b505af115801562000878573d6000803e3d6000fd5b5050506000848152600660209081526040808320600581015481546001600160a01b039081168652600285528386206003909301541685529252822080549193509190620008c890849062001db2565b90915550506000838152600660205260408082206003810154600590910154915163a9059cbb60e01b815233600482015260248101929092526001600160a01b03169063a9059cbb90604401602060405180830381600087803b1580156200092f57600080fd5b505af115801562000944573d6000803e3d6000fd5b505050506040513d601f19601f820116820180604052508101906200096a919062001aa2565b905080620009b45760405162461bcd60e51b81526020600482015260166024820152751bd51bdad95b881514905394d191548811905253115160521b6044820152606401620005b8565b600084815260066020908152604091829020600381015460059091015492519283526001600160a01b03169133917ff7a40077ff7a04c7e61f6f26fb13774259ddf1b6bce9ecf26a8276cdd3992683910160405180910390a350505050565b60005b815181101562000a685762000a5382828151811062000a4557634e487b7160e01b600052603260045260246000fd5b60200260200101516200112a565b8062000a5f8162001dff565b91505062000a16565b5050565b6040516370a0823160e01b8152336004820152829082906001600160a01b038316906370a082319060240160206040518083038186803b15801562000ab057600080fd5b505afa15801562000ac5573d6000803e3d6000fd5b505050506040513d601f19601f8201168201806040525081019062000aeb919062001bcb565b101562000b0c5760405162461bcd60e51b8152600401620005b89062001d36565b6040516323b872dd60e01b8152336004820152306024820152604481018390526000906001600160a01b038316906323b872dd90606401602060405180830381600087803b15801562000b5e57600080fd5b505af115801562000b73573d6000803e3d6000fd5b505050506040513d601f19601f8201168201806040525081019062000b99919062001aa2565b90508062000bd65760405162461bcd60e51b815260206004820152600960248201526815160811905253115160ba1b6044820152606401620005b8565b3360009081526002602090815260408083206001600160a01b03881684529091528120805485929062000c0b90849062001d97565b90915550503360009081526003602090815260408083206001600160a01b03881684529091528120805485929062000c4590849062001d97565b909155506000905062000c588562001722565b60405163140e25ad60e31b8152600481018690529091506001600160a01b0382169063a0712d6890602401600060405180830381600087803b15801562000c9e57600080fd5b505af115801562000cb3573d6000803e3d6000fd5b5050604080516001600160a01b0389168152602081018890523393507f5548c837ab068cf56a2c2479df0882a4922fd203edb7517321831d95078c5f6292500160405180910390a25050505050565b600860205281600052604060002081815481106200051157600080fd5b6000818152600660205260409020600101546001600160a01b0316331462000d8a5760405162461bcd60e51b815260206004820152601b60248201527f494e56414c49443a204e4f542054484520554e44455254414b455200000000006044820152606401620005b8565b60008181526006602052604081204260088201556003015462000db6906001600160a01b031662001722565b6000838152600660205260409081902060050154905163a9059cbb60e01b815233600482015260248101919091529091506001600160a01b0382169063a9059cbb90604401602060405180830381600087803b15801562000e1657600080fd5b505af115801562000e2b573d6000803e3d6000fd5b505050506040513d601f19601f8201168201806040525081019062000e51919062001aa2565b505050565b6001600160a01b038116600090815260076020526040812054606091808267ffffffffffffffff81111562000e9b57634e487b7160e01b600052604160045260246000fd5b60405190808252806020026020018201604052801562000ed857816020015b62000ec4620018c5565b81526020019060019003908162000eba5790505b50905060005b838110156200100a576001600160a01b038616600090815260076020526040902080548290811062000f2057634e487b7160e01b600052603260045260246000fd5b6000918252602080832090910154808352600680835260409384902084516101608101865281546001600160a01b03908116825260018301548116958201959095526002820154958101959095526003810154909316606085015260048301546080850152600583015460a085015282015460c0840152600782015460e084015260088201546101008401526009820154610120840152600a90910154610140830152835190945083908390811062000fe957634e487b7160e01b600052603260045260246000fd5b60200260200101819052508080620010019062001dff565b91505062000ede565b50949350505050565b6000620010208262001722565b6001600160a01b03928316600090815260016020526040902080546001600160a01b031916919093161790915550565b60008281526006602052604090205482906001600160a01b03163314620010b15760405162461bcd60e51b8152602060048201526014602482015273494e564c4149443a204f4e4c592049535355524560601b6044820152606401620005b8565b6000838152600660205260409020600a0154821115620011145760405162461bcd60e51b815260206004820152601860248201527f494e56414c49443a205345542045414c494552204441544500000000000000006044820152606401620005b8565b50600091825260066020526040909120600a0155565b60008181526006602052604090205481906001600160a01b031633146200118b5760405162461bcd60e51b8152602060048201526014602482015273494e564c4149443a204f4e4c592049535355524560601b6044820152606401620005b8565b60008281526006602090815260408083206005810154338552600284528285206003909201546001600160a01b031685529252909120541015620011e35760405162461bcd60e51b8152600401620005b89062001d36565b6000828152600660209081526040808320600581015433855260038085528386209201546001600160a01b0316855292529091205410156200125f5760405162461bcd60e51b8152602060048201526014602482015273125394d551919250d25153950811115413d4d25560621b6044820152606401620005b8565b6000828152600660209081526040808320600581015433855260038085528386209201546001600160a01b0316855292528220805491929091620012a590849062001db2565b90915550506000828152600660205260408120426009820155600a01805462278d0092839291620012d890849062001d97565b9091555050505050565b6001600160a01b038116600090815260086020526040812054606091808267ffffffffffffffff8111156200132757634e487b7160e01b600052604160045260246000fd5b6040519080825280602002602001820160405280156200136457816020015b62001350620018c5565b815260200190600190039081620013465790505b50905060005b838110156200100a576001600160a01b0386166000908152600860205260409020805482908110620013ac57634e487b7160e01b600052603260045260246000fd5b6000918252602080832090910154808352600680835260409384902084516101608101865281546001600160a01b03908116825260018301548116958201959095526002820154958101959095526003810154909316606085015260048301546080850152600583015460a085015282015460c0840152600782015460e084015260088201546101008401526009820154610120840152600a9091015461014083015283519094508390839081106200147557634e487b7160e01b600052603260045260246000fd5b602002602001018190525080806200148d9062001dff565b9150506200136a565b620014a2848462000a6c565b620014b286868686868662000526565b505050505050565b3360009081526002602090815260408083206001600160a01b0388168452909152902054831115620015005760405162461bcd60e51b8152600401620005b89062001d36565b3360009081526003602090815260408083206001600160a01b03881684529091529020548311156200156c5760405162461bcd60e51b8152602060048201526014602482015273125394d551919250d25153950811115413d4d25560621b6044820152606401620005b8565b6040805161016081018252338082526001600160a01b038881166020808501919091528385018b905290881660608401819052608084018c905260a0840188905260c084018790524260e0850181905260006101008601819052610120860181905261014086018890529384526003835285842091845291529281208054879290620015fa90849062001db2565b9091555050336000818152600760208181526040808420805460018082018355918652838620018f90558e8552600680845294829020875181546001600160a01b03199081166001600160a01b039283161783558986015193830180548216948316949094179093558884015160028301556060808a0151600384018054909516908316179093556080890151600483015560a0890151600583015560c08901519682019690965560e08801519481019490945561010087015160088501556101208701516009850155610140870151600a9094019390935580518b851681529182018a90528101879052918a1692918c917f25a8583ed9646d64deb905da2e2227b191e906e67fcc5b34d08ed0237b1685e0910160405180910390a4505050505050505050565b6001600160a01b038082166000908152600160205260408120549091839116620018a5576000816001600160a01b03166306fdde036040518163ffffffff1660e01b815260040160006040518083038186803b1580156200178257600080fd5b505afa15801562001797573d6000803e3d6000fd5b505050506040513d6000823e601f3d908101601f19168201604052620017c1919081019062001b20565b826001600160a01b03166395d89b416040518163ffffffff1660e01b815260040160006040518083038186803b158015620017fb57600080fd5b505afa15801562001810573d6000803e3d6000fd5b505050506040513d6000823e601f3d908101601f191682016040526200183a919081019062001b20565b8560405162001849906200193d565b620018579392919062001cf4565b604051809103906000f08015801562001874573d6000803e3d6000fd5b506001600160a01b0380861660009081526001602052604090208054919092166001600160a01b0319909116179055505b50506001600160a01b039081166000908152600160205260409020541690565b60405180610160016040528060006001600160a01b0316815260200160006001600160a01b031681526020016000801916815260200160006001600160a01b03168152602001600081526020016000815260200160008152602001600081526020016000815260200160008152602001600081525090565b610f548062001e4a83390190565b80356001600160a01b03811681146200196357600080fd5b919050565b6000602082840312156200197a578081fd5b62001985826200194b565b9392505050565b600080604083850312156200199f578081fd5b620019aa836200194b565b9150620019ba602084016200194b565b90509250929050565b60008060408385031215620019d6578182fd5b620019e1836200194b565b946020939093013593505050565b6000602080838503121562001a02578182fd5b823567ffffffffffffffff8082111562001a1a578384fd5b818501915085601f83011262001a2e578384fd5b81358181111562001a435762001a4362001e33565b8060051b915062001a5684830162001d63565b8181528481019084860184860187018a101562001a71578788fd5b8795505b8386101562001a9557803583526001959095019491860191860162001a75565b5098975050505050505050565b60006020828403121562001ab4578081fd5b8151801515811462001985578182fd5b60008060008060008060c0878903121562001add578182fd5b8635955062001aef602088016200194b565b945062001aff604088016200194b565b9350606087013592506080870135915060a087013590509295509295509295565b60006020828403121562001b32578081fd5b815167ffffffffffffffff8082111562001b4a578283fd5b818401915084601f83011262001b5e578283fd5b81518181111562001b735762001b7362001e33565b62001b88601f8201601f191660200162001d63565b915080825285602082850101111562001b9f578384fd5b6200100a81602084016020860162001dcc565b60006020828403121562001bc4578081fd5b5035919050565b60006020828403121562001bdd578081fd5b5051919050565b6000806040838503121562001bf7578182fd5b50508035926020909101359150565b6000815180845262001c2081602086016020860162001dcc565b601f01601f19169290920160200192915050565b602080825282518282018190526000919060409081850190868401855b8281101562001ce757815180516001600160a01b039081168652878201518116888701528682015187870152606080830151909116908601526080808201519086015260a0808201519086015260c0808201519086015260e08082015190860152610100808201519086015261012080820151908601526101409081015190850152610160909301929085019060010162001c51565b5091979650505050505050565b60608152600062001d09606083018662001c06565b828103602084015262001d1d818662001c06565b91505060018060a01b0383166040830152949350505050565b602080825260139082015272125394d551919250d251539508105353d55395606a1b604082015260600190565b604051601f8201601f1916810167ffffffffffffffff8111828210171562001d8f5762001d8f62001e33565b604052919050565b6000821982111562001dad5762001dad62001e1d565b500190565b60008282101562001dc75762001dc762001e1d565b500390565b60005b8381101562001de957818101518382015260200162001dcf565b8381111562001df9576000848401525b50505050565b600060001982141562001e165762001e1662001e1d565b5060010190565b634e487b7160e01b600052601160045260246000fd5b634e487b7160e01b600052604160045260246000fdfe60806040523480156200001157600080fd5b5060405162000f5438038062000f5483398101604081905262000034916200020e565b8260405160200162000047919062000297565b6040516020818303038152906040528260405160200162000069919062000297565b60408051601f1981840301815291905281516200008e906003906020850190620000d9565b508051620000a4906004906020840190620000d9565b5050600580546001600160a01b039093166001600160a01b031993841617905550600680549091163317905550620003489050565b828054620000e790620002f5565b90600052602060002090601f0160209004810192826200010b576000855562000156565b82601f106200012657805160ff191683800117855562000156565b8280016001018555821562000156579182015b828111156200015657825182559160200191906001019062000139565b506200016492915062000168565b5090565b5b8082111562000164576000815560010162000169565b600082601f83011262000190578081fd5b81516001600160401b0380821115620001ad57620001ad62000332565b604051601f8301601f19908116603f01168101908282118183101715620001d857620001d862000332565b81604052838152866020858801011115620001f1578485fd5b62000204846020830160208901620002c2565b9695505050505050565b60008060006060848603121562000223578283fd5b83516001600160401b03808211156200023a578485fd5b62000248878388016200017f565b945060208601519150808211156200025e578384fd5b506200026d868287016200017f565b604086015190935090506001600160a01b03811681146200028c578182fd5b809150509250925092565b606360f81b815260008251620002b5816001850160208701620002c2565b9190910160010192915050565b60005b83811015620002df578181015183820152602001620002c5565b83811115620002ef576000848401525b50505050565b600181811c908216806200030a57607f821691505b602082108114156200032c57634e487b7160e01b600052602260045260246000fd5b50919050565b634e487b7160e01b600052604160045260246000fd5b610bfc80620003586000396000f3fe608060405234801561001057600080fd5b50600436106100f55760003560e01c806342966c6811610097578063a457c2d711610066578063a457c2d714610206578063a9059cbb14610219578063c45a01551461022c578063dd62ed3e1461023f57600080fd5b806342966c68146101ad57806370a08231146101c257806395d89b41146101eb578063a0712d68146101f357600080fd5b80631a32aad6116100d35780631a32aad61461014d57806323b872dd14610178578063313ce5671461018b578063395093511461019a57600080fd5b806306fdde03146100fa578063095ea7b31461011857806318160ddd1461013b575b600080fd5b610102610252565b60405161010f9190610af3565b60405180910390f35b61012b610126366004610ab2565b6102e4565b604051901515815260200161010f565b6002545b60405190815260200161010f565b600554610160906001600160a01b031681565b6040516001600160a01b03909116815260200161010f565b61012b610186366004610a77565b6102fc565b6040516012815260200161010f565b61012b6101a8366004610ab2565b610320565b6101c06101bb366004610adb565b610342565b005b61013f6101d0366004610a24565b6001600160a01b031660009081526020819052604090205490565b61010261034f565b6101c0610201366004610adb565b61035e565b61012b610214366004610ab2565b6103c2565b61012b610227366004610ab2565b61043d565b600654610160906001600160a01b031681565b61013f61024d366004610a45565b61044b565b60606003805461026190610b75565b80601f016020809104026020016040519081016040528092919081815260200182805461028d90610b75565b80156102da5780601f106102af576101008083540402835291602001916102da565b820191906000526020600020905b8154815290600101906020018083116102bd57829003601f168201915b5050505050905090565b6000336102f2818585610476565b5060019392505050565b60003361030a85828561059b565b610315858585610615565b506001949350505050565b6000336102f2818585610333838361044b565b61033d9190610b46565b610476565b61034c33826107e3565b50565b60606004805461026190610b75565b6006546001600160a01b031633146103ac5760405162461bcd60e51b815260206004820152600c60248201526b4f4e4c5920466163746f727960a01b60448201526064015b60405180910390fd5b60065461034c906001600160a01b031682610929565b600033816103d0828661044b565b9050838110156104305760405162461bcd60e51b815260206004820152602560248201527f45524332303a2064656372656173656420616c6c6f77616e63652062656c6f77604482015264207a65726f60d81b60648201526084016103a3565b6103158286868403610476565b6000336102f2818585610615565b6001600160a01b03918216600090815260016020908152604080832093909416825291909152205490565b6001600160a01b0383166104d85760405162461bcd60e51b8152602060048201526024808201527f45524332303a20617070726f76652066726f6d20746865207a65726f206164646044820152637265737360e01b60648201526084016103a3565b6001600160a01b0382166105395760405162461bcd60e51b815260206004820152602260248201527f45524332303a20617070726f766520746f20746865207a65726f206164647265604482015261737360f01b60648201526084016103a3565b6001600160a01b0383811660008181526001602090815260408083209487168084529482529182902085905590518481527f8c5be1e5ebec7d5bd14f71427d1e84f3dd0314c0f7b2291e5b200ac8c7c3b92591015b60405180910390a3505050565b60006105a7848461044b565b9050600019811461060f57818110156106025760405162461bcd60e51b815260206004820152601d60248201527f45524332303a20696e73756666696369656e7420616c6c6f77616e636500000060448201526064016103a3565b61060f8484848403610476565b50505050565b6001600160a01b0383166106795760405162461bcd60e51b815260206004820152602560248201527f45524332303a207472616e736665722066726f6d20746865207a65726f206164604482015264647265737360d81b60648201526084016103a3565b6001600160a01b0382166106db5760405162461bcd60e51b815260206004820152602360248201527f45524332303a207472616e7366657220746f20746865207a65726f206164647260448201526265737360e81b60648201526084016103a3565b6001600160a01b038316600090815260208190526040902054818110156107535760405162461bcd60e51b815260206004820152602660248201527f45524332303a207472616e7366657220616d6f756e7420657863656564732062604482015265616c616e636560d01b60648201526084016103a3565b6001600160a01b0380851660009081526020819052604080822085850390559185168152908120805484929061078a908490610b46565b92505081905550826001600160a01b0316846001600160a01b03167fddf252ad1be2c89b69c2b068fc378daa952ba7f163c4a11628f55a4df523b3ef846040516107d691815260200190565b60405180910390a361060f565b6001600160a01b0382166108435760405162461bcd60e51b815260206004820152602160248201527f45524332303a206275726e2066726f6d20746865207a65726f206164647265736044820152607360f81b60648201526084016103a3565b6001600160a01b038216600090815260208190526040902054818110156108b75760405162461bcd60e51b815260206004820152602260248201527f45524332303a206275726e20616d6f756e7420657863656564732062616c616e604482015261636560f01b60648201526084016103a3565b6001600160a01b03831660009081526020819052604081208383039055600280548492906108e6908490610b5e565b90915550506040518281526000906001600160a01b038516907fddf252ad1be2c89b69c2b068fc378daa952ba7f163c4a11628f55a4df523b3ef9060200161058e565b6001600160a01b03821661097f5760405162461bcd60e51b815260206004820152601f60248201527f45524332303a206d696e7420746f20746865207a65726f20616464726573730060448201526064016103a3565b80600260008282546109919190610b46565b90915550506001600160a01b038216600090815260208190526040812080548392906109be908490610b46565b90915550506040518181526001600160a01b038316906000907fddf252ad1be2c89b69c2b068fc378daa952ba7f163c4a11628f55a4df523b3ef9060200160405180910390a35050565b80356001600160a01b0381168114610a1f57600080fd5b919050565b600060208284031215610a35578081fd5b610a3e82610a08565b9392505050565b60008060408385031215610a57578081fd5b610a6083610a08565b9150610a6e60208401610a08565b90509250929050565b600080600060608486031215610a8b578081fd5b610a9484610a08565b9250610aa260208501610a08565b9150604084013590509250925092565b60008060408385031215610ac4578182fd5b610acd83610a08565b946020939093013593505050565b600060208284031215610aec578081fd5b5035919050565b6000602080835283518082850152825b81811015610b1f57858101830151858201604001528201610b03565b81811115610b305783604083870101525b50601f01601f1916929092016040019392505050565b60008219821115610b5957610b59610bb0565b500190565b600082821015610b7057610b70610bb0565b500390565b600181811c90821680610b8957607f821691505b60208210811415610baa57634e487b7160e01b600052602260045260246000fd5b50919050565b634e487b7160e01b600052601160045260246000fdfea264697066735822122033fbcd0f9e88217aaee4336e0889584945abbc68d2dc73c4032fa2479e9e29ff64736f6c63430008040033a264697066735822122074686238fd2d93e5f8643488bf7f79cf43de471f179cc2d8e4ebcf5e32fb2c2264736f6c63430008040033",
  "linkReferences": {},
  "deployedLinkReferences": {}
}