{
  "_format": "hh-sol-artifact-1",
  "contractName": "Shiharai",
  "sourceName": "contracts/Shiharai.sol",
  "abi": [
    {
      "inputs": [
        {
          "internalType": "address",
          "name": "_erc20",
          "type": "address"
        }
      ],
      "stateMutability": "nonpayable",
      "type": "constructor"
    },
    {
      "anonymous": false,
      "inputs": [
        {
          "indexed": false,
          "internalType": "address",
          "name": "with",
          "type": "address"
        },
        {
          "indexed": false,
          "internalType": "uint256",
          "name": "amount",
          "type": "uint256"
        },
        {
          "indexed": false,
          "internalType": "uint256",
          "name": "term",
          "type": "uint256"
        },
        {
          "indexed": false,
          "internalType": "uint256",
          "name": "timestamp",
          "type": "uint256"
        }
      ],
      "name": "Agreed",
      "type": "event"
    },
    {
      "anonymous": false,
      "inputs": [
        {
          "indexed": false,
          "internalType": "address",
          "name": "to",
          "type": "address"
        }
      ],
      "name": "Claimed",
      "type": "event"
    },
    {
      "inputs": [
        {
          "internalType": "address",
          "name": "_protocol",
          "type": "address"
        }
      ],
      "name": "addLendingProtocol",
      "outputs": [],
      "stateMutability": "nonpayable",
      "type": "function"
    },
    {
      "inputs": [
        {
          "internalType": "uint256",
          "name": "",
          "type": "uint256"
        }
      ],
      "name": "agreements",
      "outputs": [
        {
          "internalType": "address",
          "name": "issuer",
          "type": "address"
        },
        {
          "internalType": "address",
          "name": "undertaker",
          "type": "address"
        },
        {
          "internalType": "bytes32",
          "name": "name",
          "type": "bytes32"
        },
        {
          "internalType": "address",
          "name": "payment",
          "type": "address"
        },
        {
          "internalType": "uint256",
          "name": "id",
          "type": "uint256"
        },
        {
          "internalType": "uint256",
          "name": "amount",
          "type": "uint256"
        },
        {
          "internalType": "uint256",
          "name": "term",
          "type": "uint256"
        },
        {
          "internalType": "uint256",
          "name": "issuedAt",
          "type": "uint256"
        },
        {
          "internalType": "uint256",
          "name": "confirmedAt",
          "type": "uint256"
        },
        {
          "internalType": "uint256",
          "name": "depositedAt",
          "type": "uint256"
        },
        {
          "internalType": "uint256",
          "name": "paysAt",
          "type": "uint256"
        }
      ],
      "stateMutability": "view",
      "type": "function"
    },
    {
      "inputs": [
        {
          "internalType": "address",
          "name": "_spender",
          "type": "address"
        }
      ],
      "name": "approveof",
      "outputs": [],
      "stateMutability": "nonpayable",
      "type": "function"
    },
    {
      "inputs": [],
      "name": "claim",
      "outputs": [],
      "stateMutability": "nonpayable",
      "type": "function"
    },
    {
      "inputs": [],
      "name": "claimForLendingProctol",
      "outputs": [],
      "stateMutability": "nonpayable",
      "type": "function"
    },
    {
      "inputs": [
        {
          "internalType": "uint256",
          "name": "_id",
          "type": "uint256"
        }
      ],
      "name": "confirmAgreement",
      "outputs": [],
      "stateMutability": "nonpayable",
      "type": "function"
    },
    {
      "inputs": [
        {
          "internalType": "uint256",
          "name": "_id",
          "type": "uint256"
        }
      ],
      "name": "continueAgreement",
      "outputs": [],
      "stateMutability": "nonpayable",
      "type": "function"
    },
    {
      "inputs": [
        {
          "internalType": "uint256[]",
          "name": "_ids",
          "type": "uint256[]"
        }
      ],
      "name": "continueAgreements",
      "outputs": [],
      "stateMutability": "nonpayable",
      "type": "function"
    },
    {
      "inputs": [
        {
          "internalType": "uint256",
          "name": "issueId",
          "type": "uint256"
        },
        {
          "internalType": "address",
          "name": "_token",
          "type": "address"
        },
        {
          "internalType": "uint256",
          "name": "_amount",
          "type": "uint256"
        }
      ],
      "name": "deposit",
      "outputs": [],
      "stateMutability": "nonpayable",
      "type": "function"
    },
    {
      "inputs": [
        {
          "internalType": "bytes32",
          "name": "_name",
          "type": "bytes32"
        },
        {
          "internalType": "address",
          "name": "_with",
          "type": "address"
        },
        {
          "internalType": "address",
          "name": "_token",
          "type": "address"
        },
        {
          "internalType": "uint256",
          "name": "_amount",
          "type": "uint256"
        },
        {
          "internalType": "uint256",
          "name": "_term",
          "type": "uint256"
        },
        {
          "internalType": "uint256",
          "name": "_paysAt",
          "type": "uint256"
        }
      ],
      "name": "depositAndissueAgreement",
      "outputs": [],
      "stateMutability": "nonpayable",
      "type": "function"
    },
    {
      "inputs": [
        {
          "internalType": "uint256",
          "name": "",
          "type": "uint256"
        },
        {
          "internalType": "address",
          "name": "",
          "type": "address"
        }
      ],
      "name": "depositByAgreement",
      "outputs": [
        {
          "internalType": "uint256",
          "name": "",
          "type": "uint256"
        }
      ],
      "stateMutability": "view",
      "type": "function"
    },
    {
      "inputs": [
        {
          "internalType": "address",
          "name": "",
          "type": "address"
        },
        {
          "internalType": "address",
          "name": "",
          "type": "address"
        }
      ],
      "name": "depositedAmountMap",
      "outputs": [
        {
          "internalType": "uint256",
          "name": "",
          "type": "uint256"
        }
      ],
      "stateMutability": "view",
      "type": "function"
    },
    {
      "inputs": [
        {
          "internalType": "address",
          "name": "protocol",
          "type": "address"
        }
      ],
      "name": "getAgreements",
      "outputs": [
        {
          "components": [
            {
              "internalType": "address",
              "name": "issuer",
              "type": "address"
            },
            {
              "internalType": "address",
              "name": "undertaker",
              "type": "address"
            },
            {
              "internalType": "bytes32",
              "name": "name",
              "type": "bytes32"
            },
            {
              "internalType": "address",
              "name": "payment",
              "type": "address"
            },
            {
              "internalType": "uint256",
              "name": "id",
              "type": "uint256"
            },
            {
              "internalType": "uint256",
              "name": "amount",
              "type": "uint256"
            },
            {
              "internalType": "uint256",
              "name": "term",
              "type": "uint256"
            },
            {
              "internalType": "uint256",
              "name": "issuedAt",
              "type": "uint256"
            },
            {
              "internalType": "uint256",
              "name": "confirmedAt",
              "type": "uint256"
            },
            {
              "internalType": "uint256",
              "name": "depositedAt",
              "type": "uint256"
            },
            {
              "internalType": "uint256",
              "name": "paysAt",
              "type": "uint256"
            }
          ],
          "internalType": "struct Shiharai.Agreement[]",
          "name": "",
          "type": "tuple[]"
        }
      ],
      "stateMutability": "view",
      "type": "function"
    },
    {
      "inputs": [
        {
          "internalType": "uint256",
          "name": "_id",
          "type": "uint256"
        },
        {
          "internalType": "bytes32",
          "name": "_name",
          "type": "bytes32"
        },
        {
          "internalType": "address",
          "name": "_with",
          "type": "address"
        },
        {
          "internalType": "address",
          "name": "_token",
          "type": "address"
        },
        {
          "internalType": "uint256",
          "name": "_amount",
          "type": "uint256"
        },
        {
          "internalType": "uint256",
          "name": "_term",
          "type": "uint256"
        },
        {
          "internalType": "uint256",
          "name": "_depositAt",
          "type": "uint256"
        },
        {
          "internalType": "uint256",
          "name": "_paysAt",
          "type": "uint256"
        }
      ],
      "name": "issueAgreement",
      "outputs": [],
      "stateMutability": "nonpayable",
      "type": "function"
    },
    {
      "inputs": [
        {
          "internalType": "address",
          "name": "",
          "type": "address"
        },
        {
          "internalType": "uint256",
          "name": "",
          "type": "uint256"
        }
      ],
      "name": "issuedagreementsmap",
      "outputs": [
        {
          "internalType": "address",
          "name": "issuer",
          "type": "address"
        },
        {
          "internalType": "address",
          "name": "undertaker",
          "type": "address"
        },
        {
          "internalType": "bytes32",
          "name": "name",
          "type": "bytes32"
        },
        {
          "internalType": "address",
          "name": "payment",
          "type": "address"
        },
        {
          "internalType": "uint256",
          "name": "id",
          "type": "uint256"
        },
        {
          "internalType": "uint256",
          "name": "amount",
          "type": "uint256"
        },
        {
          "internalType": "uint256",
          "name": "term",
          "type": "uint256"
        },
        {
          "internalType": "uint256",
          "name": "issuedAt",
          "type": "uint256"
        },
        {
          "internalType": "uint256",
          "name": "confirmedAt",
          "type": "uint256"
        },
        {
          "internalType": "uint256",
          "name": "depositedAt",
          "type": "uint256"
        },
        {
          "internalType": "uint256",
          "name": "paysAt",
          "type": "uint256"
        }
      ],
      "stateMutability": "view",
      "type": "function"
    },
    {
      "inputs": [
        {
          "internalType": "address",
          "name": "",
          "type": "address"
        },
        {
          "internalType": "uint256",
          "name": "",
          "type": "uint256"
        }
      ],
      "name": "issuerAgreementsIds",
      "outputs": [
        {
          "internalType": "uint256",
          "name": "",
          "type": "uint256"
        }
      ],
      "stateMutability": "view",
      "type": "function"
    },
    {
      "inputs": [
        {
          "internalType": "uint256",
          "name": "",
          "type": "uint256"
        }
      ],
      "name": "redeemedAmountMap",
      "outputs": [
        {
          "internalType": "address",
          "name": "token",
          "type": "address"
        },
        {
          "internalType": "uint256",
          "name": "amount",
          "type": "uint256"
        }
      ],
      "stateMutability": "view",
      "type": "function"
    },
    {
      "inputs": [
        {
          "internalType": "address",
          "name": "_address",
          "type": "address"
        }
      ],
      "name": "setSupportedToken",
      "outputs": [],
      "stateMutability": "nonpayable",
      "type": "function"
    },
    {
      "inputs": [
        {
          "internalType": "address",
          "name": "",
          "type": "address"
        }
      ],
      "name": "supportedTokensMap",
      "outputs": [
        {
          "internalType": "address",
          "name": "",
          "type": "address"
        }
      ],
      "stateMutability": "view",
      "type": "function"
    },
    {
      "inputs": [
        {
          "internalType": "address",
          "name": "",
          "type": "address"
        },
        {
          "internalType": "uint256",
          "name": "",
          "type": "uint256"
        }
      ],
      "name": "undertakenAgreementsMap",
      "outputs": [
        {
          "internalType": "address",
          "name": "issuer",
          "type": "address"
        },
        {
          "internalType": "address",
          "name": "undertaker",
          "type": "address"
        },
        {
          "internalType": "bytes32",
          "name": "name",
          "type": "bytes32"
        },
        {
          "internalType": "address",
          "name": "payment",
          "type": "address"
        },
        {
          "internalType": "uint256",
          "name": "id",
          "type": "uint256"
        },
        {
          "internalType": "uint256",
          "name": "amount",
          "type": "uint256"
        },
        {
          "internalType": "uint256",
          "name": "term",
          "type": "uint256"
        },
        {
          "internalType": "uint256",
          "name": "issuedAt",
          "type": "uint256"
        },
        {
          "internalType": "uint256",
          "name": "confirmedAt",
          "type": "uint256"
        },
        {
          "internalType": "uint256",
          "name": "depositedAt",
          "type": "uint256"
        },
        {
          "internalType": "uint256",
          "name": "paysAt",
          "type": "uint256"
        }
      ],
      "stateMutability": "view",
      "type": "function"
    },
    {
      "inputs": [
        {
          "internalType": "uint256",
          "name": "",
          "type": "uint256"
        }
      ],
      "name": "vestingConditionMap",
      "outputs": [
        {
          "internalType": "uint256",
          "name": "cliff",
          "type": "uint256"
        },
        {
          "internalType": "uint256",
          "name": "duration",
          "type": "uint256"
        },
        {
          "internalType": "uint256",
          "name": "revokeDays",
          "type": "uint256"
        }
      ],
      "stateMutability": "view",
      "type": "function"
    },
    {
      "inputs": [
        {
          "internalType": "address",
          "name": "_with",
          "type": "address"
        }
      ],
      "name": "withdrawalAgreement",
      "outputs": [],
      "stateMutability": "nonpayable",
      "type": "function"
    }
  ],
  "bytecode": "0x608060405234801561001057600080fd5b50604051610f7e380380610f7e83398101604081905261002f91610063565b61005d816001600160a01b0316600081815260016020526040902080546001600160a01b0319169091179055565b50610091565b600060208284031215610074578081fd5b81516001600160a01b038116811461008a578182fd5b9392505050565b610ede806100a06000396000f3fe608060405234801561001057600080fd5b50600436106101425760003560e01c80635fbd5bed116100b8578063bc157ac11161007c578063bc157ac114610346578063bc2f2dcf14610359578063bd14de9614610391578063ca72595c14610406578063d345ad5714610450578063eb5c68e71461045e57600080fd5b80635fbd5bed1461022b5780637c05798c1461030857806389e0a6831461020957806398776efa1461022b578063b7e3ee8f1461031b57600080fd5b80633ecfebcd1161010a5780633ecfebcd1461022b5780633f270e621461023c578063424690bb1461024a5780634e71d92d1461020957806353dc78131461029c5780635da1d6fa146102dd57600080fd5b806310ac0adc146101475780631c1ee35c1461016d5780631c3f9239146101e357806327e02e0f146101f657806332c833c01461020b575b600080fd5b61015a610155366004610b79565b610471565b6040519081526020015b60405180910390f35b61018061017b366004610b79565b6104a2565b604080516001600160a01b039c8d1681529a8c1660208c01528a0198909852989095166060880152608087019390935260a086019190915260c085015260e084015261010083015261012082019290925261014081019190915261016001610164565b6101806101f1366004610b79565b610527565b610209610204366004610d47565b610543565b005b61021e610219366004610b26565b610828565b6040516101649190610db0565b610209610239366004610b26565b50565b610209610239366004610ba2565b61027d610258366004610cd9565b600660205260009081526040902080546001909101546001600160a01b039091169082565b604080516001600160a01b039093168352602083019190915201610164565b6102c56102aa366004610b26565b6001602052600090815260409020546001600160a01b031681565b6040516001600160a01b039091168152602001610164565b61015a6102eb366004610cf1565b600560209081526000928352604080842090915290825290205481565b610209610316366004610cd9565b610917565b61015a610329366004610b47565b600460209081526000928352604080842090915290825290205481565b610209610354366004610d13565b61099c565b610209610367366004610b26565b6001600160a01b0316600081815260016020526040902080546001600160a01b0319169091179055565b61018061039f366004610cd9565b600860208190526000918252604090912080546001820154600283015460038401546004850154600586015460068701546007880154988801546009890154600a909901546001600160a01b039889169a978916999698909516969395929491939290918b565b610435610414366004610cd9565b60076020526000908152604090208054600182015460029092015490919083565b60408051938452602084019290925290820152606001610164565b610209610239366004610cd9565b61020961046c366004610c82565b610ad5565b6009602052816000526040600020818154811061048d57600080fd5b90600052602060002001600091509150505481565b600360205281600052604060002081815481106104be57600080fd5b60009182526020909120600b9091020180546001820154600283015460038401546004850154600586015460068701546007880154600889015460098a0154600a909a01546001600160a01b03998a169c509789169a509598949097169692959194909390918b565b600260205281600052604060002081815481106104be57600080fd5b60004290506000604051806101600160405280336001600160a01b03168152602001896001600160a01b031681526020018a8152602001886001600160a01b031681526020018b81526020018781526020018681526020018381526020016000815260200185815260200184815250905060026000336001600160a01b03166001600160a01b031681526020019081526020016000208190806001815401808255809150506001900390600052602060002090600b020160009091909190915060008201518160000160006101000a8154816001600160a01b0302191690836001600160a01b0316021790555060208201518160010160006101000a8154816001600160a01b0302191690836001600160a01b031602179055506040820151816002015560608201518160030160006101000a8154816001600160a01b0302191690836001600160a01b031602179055506080820151816004015560a0820151816005015560c0820151816006015560e082015181600701556101008201518160080155610120820151816009015561014082015181600a0155505080600860008c815260200190815260200160002060008201518160000160006101000a8154816001600160a01b0302191690836001600160a01b0316021790555060208201518160010160006101000a8154816001600160a01b0302191690836001600160a01b031602179055506040820151816002015560608201518160030160006101000a8154816001600160a01b0302191690836001600160a01b031602179055506080820151816004015560a0820151816005015560c0820151816006015560e082015181600701556101008201518160080155610120820151816009015561014082015181600a015590505060096000336001600160a01b03166001600160a01b031681526020019081526020016000208a908060018154018082558091505060019003906000526020600020016000909190919091505550505050505050505050565b6001600160a01b0381166000908152600260209081526040808320805482518185028101850190935280835260609492939192909184015b8282101561090c5760008481526020908190206040805161016081018252600b860290920180546001600160a01b039081168452600180830154821685870152600283015493850193909352600382015416606084015260048101546080840152600581015460a0840152600681015460c0840152600781015460e084015260088101546101008401526009810154610120840152600a01546101408301529083529092019101610860565b505050509050919050565b6000818152600860205260409020600101546001600160a01b031633146109855760405162461bcd60e51b815260206004820152601b60248201527f494e56414c49443a204e4f542054484520554e44455254414b4552000000000060448201526064015b60405180910390fd5b600090815260086020819052604090912042910155565b6040516323b872dd60e01b8152336004820152306024820152604481018290526000906001600160a01b038416906323b872dd90606401602060405180830381600087803b1580156109ed57600080fd5b505af1158015610a01573d6000803e3d6000fd5b505050506040513d601f19601f82011682018060405250810190610a259190610c62565b905080610a605760405162461bcd60e51b815260206004820152600960248201526815160811905253115160ba1b604482015260640161097c565b3360009081526004602090815260408083206001600160a01b038716845290915281208054849290610a93908490610e6e565b909155505060008481526005602090815260408083206001600160a01b038716845290915281208054849290610aca908490610e6e565b909155505050505050565b610ae3600080546001019055565b600054610af181868661099c565b610b018188888888884289610543565b50505050505050565b80356001600160a01b0381168114610b2157600080fd5b919050565b600060208284031215610b37578081fd5b610b4082610b0a565b9392505050565b60008060408385031215610b59578081fd5b610b6283610b0a565b9150610b7060208401610b0a565b90509250929050565b60008060408385031215610b8b578182fd5b610b9483610b0a565b946020939093013593505050565b60006020808385031215610bb4578182fd5b823567ffffffffffffffff80821115610bcb578384fd5b818501915085601f830112610bde578384fd5b813581811115610bf057610bf0610e92565b8060051b604051601f19603f83011681018181108582111715610c1557610c15610e92565b604052828152858101935084860182860187018a1015610c33578788fd5b8795505b83861015610c55578035855260019590950194938601938601610c37565b5098975050505050505050565b600060208284031215610c73578081fd5b81518015158114610b40578182fd5b60008060008060008060c08789031215610c9a578182fd5b86359550610caa60208801610b0a565b9450610cb860408801610b0a565b9350606087013592506080870135915060a087013590509295509295509295565b600060208284031215610cea578081fd5b5035919050565b60008060408385031215610d03578182fd5b82359150610b7060208401610b0a565b600080600060608486031215610d27578283fd5b83359250610d3760208501610b0a565b9150604084013590509250925092565b600080600080600080600080610100898b031215610d63578182fd5b8835975060208901359650610d7a60408a01610b0a565b9550610d8860608a01610b0a565b979a969950949760808101359660a0820135965060c0820135955060e0909101359350915050565b602080825282518282018190526000919060409081850190868401855b82811015610e6157815180516001600160a01b039081168652878201518116888701528682015187870152606080830151909116908601526080808201519086015260a0808201519086015260c0808201519086015260e080820151908601526101008082015190860152610120808201519086015261014090810151908501526101609093019290850190600101610dcd565b5091979650505050505050565b60008219821115610e8d57634e487b7160e01b81526011600452602481fd5b500190565b634e487b7160e01b600052604160045260246000fdfea264697066735822122044183da38ceabd7895de0a9a79c5f187a783ed88e651c61c54c9a1bb860b68dd64736f6c63430008040033",
  "linkReferences": {},
  "deployedLinkReferences": {}
}