{
  "_format": "hh-sol-artifact-1",
  "contractName": "Shiharai",
  "sourceName": "contracts/Shiharai.sol",
  "abi": [
    {
      "inputs": [
        {
          "internalType": "address",
          "name": "_erc20",
          "type": "address"
        }
      ],
      "stateMutability": "nonpayable",
      "type": "constructor"
    },
    {
      "anonymous": false,
      "inputs": [
        {
          "indexed": false,
          "internalType": "address",
          "name": "with",
          "type": "address"
        },
        {
          "indexed": false,
          "internalType": "uint256",
          "name": "amount",
          "type": "uint256"
        },
        {
          "indexed": false,
          "internalType": "uint256",
          "name": "term",
          "type": "uint256"
        },
        {
          "indexed": false,
          "internalType": "uint256",
          "name": "timestamp",
          "type": "uint256"
        }
      ],
      "name": "Agreed",
      "type": "event"
    },
    {
      "anonymous": false,
      "inputs": [
        {
          "indexed": true,
          "internalType": "address",
          "name": "by",
          "type": "address"
        },
        {
          "indexed": true,
          "internalType": "address",
          "name": "token",
          "type": "address"
        },
        {
          "indexed": false,
          "internalType": "uint256",
          "name": "amount",
          "type": "uint256"
        }
      ],
      "name": "Claimed",
      "type": "event"
    },
    {
      "anonymous": false,
      "inputs": [
        {
          "indexed": true,
          "internalType": "address",
          "name": "issuer",
          "type": "address"
        },
        {
          "indexed": false,
          "internalType": "address",
          "name": "token",
          "type": "address"
        },
        {
          "indexed": false,
          "internalType": "uint256",
          "name": "amount",
          "type": "uint256"
        }
      ],
      "name": "Deposit",
      "type": "event"
    },
    {
      "anonymous": false,
      "inputs": [
        {
          "indexed": true,
          "internalType": "uint256",
          "name": "id",
          "type": "uint256"
        },
        {
          "indexed": true,
          "internalType": "address",
          "name": "issuer",
          "type": "address"
        },
        {
          "indexed": true,
          "internalType": "address",
          "name": "with",
          "type": "address"
        },
        {
          "indexed": false,
          "internalType": "address",
          "name": "token",
          "type": "address"
        },
        {
          "indexed": false,
          "internalType": "uint256",
          "name": "amount",
          "type": "uint256"
        },
        {
          "indexed": false,
          "internalType": "uint256",
          "name": "paysAt",
          "type": "uint256"
        }
      ],
      "name": "IssuedAgreement",
      "type": "event"
    },
    {
      "inputs": [
        {
          "internalType": "address",
          "name": "_protocol",
          "type": "address"
        }
      ],
      "name": "addLendingProtocol",
      "outputs": [],
      "stateMutability": "nonpayable",
      "type": "function"
    },
    {
      "inputs": [
        {
          "internalType": "uint256",
          "name": "",
          "type": "uint256"
        }
      ],
      "name": "agreements",
      "outputs": [
        {
          "internalType": "address",
          "name": "issuer",
          "type": "address"
        },
        {
          "internalType": "address",
          "name": "undertaker",
          "type": "address"
        },
        {
          "internalType": "bytes32",
          "name": "name",
          "type": "bytes32"
        },
        {
          "internalType": "address",
          "name": "payment",
          "type": "address"
        },
        {
          "internalType": "uint256",
          "name": "id",
          "type": "uint256"
        },
        {
          "internalType": "uint256",
          "name": "amount",
          "type": "uint256"
        },
        {
          "internalType": "uint256",
          "name": "term",
          "type": "uint256"
        },
        {
          "internalType": "uint256",
          "name": "issuedAt",
          "type": "uint256"
        },
        {
          "internalType": "uint256",
          "name": "confirmedAt",
          "type": "uint256"
        },
        {
          "internalType": "uint256",
          "name": "continuesAt",
          "type": "uint256"
        },
        {
          "internalType": "uint256",
          "name": "paysAt",
          "type": "uint256"
        }
      ],
      "stateMutability": "view",
      "type": "function"
    },
    {
      "inputs": [
        {
          "internalType": "address",
          "name": "_spender",
          "type": "address"
        }
      ],
      "name": "approveof",
      "outputs": [],
      "stateMutability": "nonpayable",
      "type": "function"
    },
    {
      "inputs": [
        {
          "internalType": "uint256",
          "name": "_id",
          "type": "uint256"
        }
      ],
      "name": "claim",
      "outputs": [],
      "stateMutability": "nonpayable",
      "type": "function"
    },
    {
      "inputs": [],
      "name": "claimForLendingProctol",
      "outputs": [],
      "stateMutability": "nonpayable",
      "type": "function"
    },
    {
      "inputs": [
        {
          "internalType": "uint256",
          "name": "_id",
          "type": "uint256"
        }
      ],
      "name": "confirmAgreement",
      "outputs": [],
      "stateMutability": "nonpayable",
      "type": "function"
    },
    {
      "inputs": [
        {
          "internalType": "uint256",
          "name": "_id",
          "type": "uint256"
        }
      ],
      "name": "continueAgreement",
      "outputs": [],
      "stateMutability": "nonpayable",
      "type": "function"
    },
    {
      "inputs": [
        {
          "internalType": "uint256[]",
          "name": "_ids",
          "type": "uint256[]"
        }
      ],
      "name": "continueAgreements",
      "outputs": [],
      "stateMutability": "nonpayable",
      "type": "function"
    },
    {
      "inputs": [
        {
          "internalType": "address",
          "name": "_token",
          "type": "address"
        },
        {
          "internalType": "uint256",
          "name": "_amount",
          "type": "uint256"
        }
      ],
      "name": "deposit",
      "outputs": [],
      "stateMutability": "nonpayable",
      "type": "function"
    },
    {
      "inputs": [
        {
          "internalType": "bytes32",
          "name": "_name",
          "type": "bytes32"
        },
        {
          "internalType": "address",
          "name": "_with",
          "type": "address"
        },
        {
          "internalType": "address",
          "name": "_token",
          "type": "address"
        },
        {
          "internalType": "uint256",
          "name": "_amount",
          "type": "uint256"
        },
        {
          "internalType": "uint256",
          "name": "_term",
          "type": "uint256"
        },
        {
          "internalType": "uint256",
          "name": "_paysAt",
          "type": "uint256"
        }
      ],
      "name": "depositAndissueAgreement",
      "outputs": [],
      "stateMutability": "nonpayable",
      "type": "function"
    },
    {
      "inputs": [
        {
          "internalType": "address",
          "name": "",
          "type": "address"
        },
        {
          "internalType": "address",
          "name": "",
          "type": "address"
        }
      ],
      "name": "depositedAmountMap",
      "outputs": [
        {
          "internalType": "uint256",
          "name": "",
          "type": "uint256"
        }
      ],
      "stateMutability": "view",
      "type": "function"
    },
    {
      "inputs": [
        {
          "internalType": "address",
          "name": "protocol",
          "type": "address"
        }
      ],
      "name": "getIssuersAgreements",
      "outputs": [
        {
          "components": [
            {
              "internalType": "address",
              "name": "issuer",
              "type": "address"
            },
            {
              "internalType": "address",
              "name": "undertaker",
              "type": "address"
            },
            {
              "internalType": "bytes32",
              "name": "name",
              "type": "bytes32"
            },
            {
              "internalType": "address",
              "name": "payment",
              "type": "address"
            },
            {
              "internalType": "uint256",
              "name": "id",
              "type": "uint256"
            },
            {
              "internalType": "uint256",
              "name": "amount",
              "type": "uint256"
            },
            {
              "internalType": "uint256",
              "name": "term",
              "type": "uint256"
            },
            {
              "internalType": "uint256",
              "name": "issuedAt",
              "type": "uint256"
            },
            {
              "internalType": "uint256",
              "name": "confirmedAt",
              "type": "uint256"
            },
            {
              "internalType": "uint256",
              "name": "continuesAt",
              "type": "uint256"
            },
            {
              "internalType": "uint256",
              "name": "paysAt",
              "type": "uint256"
            }
          ],
          "internalType": "struct Shiharai.Agreement[]",
          "name": "",
          "type": "tuple[]"
        }
      ],
      "stateMutability": "view",
      "type": "function"
    },
    {
      "inputs": [
        {
          "internalType": "address",
          "name": "_taker",
          "type": "address"
        }
      ],
      "name": "getUnderTakersAgreements",
      "outputs": [
        {
          "components": [
            {
              "internalType": "address",
              "name": "issuer",
              "type": "address"
            },
            {
              "internalType": "address",
              "name": "undertaker",
              "type": "address"
            },
            {
              "internalType": "bytes32",
              "name": "name",
              "type": "bytes32"
            },
            {
              "internalType": "address",
              "name": "payment",
              "type": "address"
            },
            {
              "internalType": "uint256",
              "name": "id",
              "type": "uint256"
            },
            {
              "internalType": "uint256",
              "name": "amount",
              "type": "uint256"
            },
            {
              "internalType": "uint256",
              "name": "term",
              "type": "uint256"
            },
            {
              "internalType": "uint256",
              "name": "issuedAt",
              "type": "uint256"
            },
            {
              "internalType": "uint256",
              "name": "confirmedAt",
              "type": "uint256"
            },
            {
              "internalType": "uint256",
              "name": "continuesAt",
              "type": "uint256"
            },
            {
              "internalType": "uint256",
              "name": "paysAt",
              "type": "uint256"
            }
          ],
          "internalType": "struct Shiharai.Agreement[]",
          "name": "",
          "type": "tuple[]"
        }
      ],
      "stateMutability": "view",
      "type": "function"
    },
    {
      "inputs": [
        {
          "internalType": "bytes32",
          "name": "_name",
          "type": "bytes32"
        },
        {
          "internalType": "address",
          "name": "_with",
          "type": "address"
        },
        {
          "internalType": "address",
          "name": "_token",
          "type": "address"
        },
        {
          "internalType": "uint256",
          "name": "_amount",
          "type": "uint256"
        },
        {
          "internalType": "uint256",
          "name": "_term",
          "type": "uint256"
        },
        {
          "internalType": "uint256",
          "name": "_paysAt",
          "type": "uint256"
        }
      ],
      "name": "issueAgreement",
      "outputs": [],
      "stateMutability": "nonpayable",
      "type": "function"
    },
    {
      "inputs": [
        {
          "internalType": "address",
          "name": "",
          "type": "address"
        },
        {
          "internalType": "uint256",
          "name": "",
          "type": "uint256"
        }
      ],
      "name": "issuerAgreementsIds",
      "outputs": [
        {
          "internalType": "uint256",
          "name": "",
          "type": "uint256"
        }
      ],
      "stateMutability": "view",
      "type": "function"
    },
    {
      "inputs": [
        {
          "internalType": "address",
          "name": "",
          "type": "address"
        },
        {
          "internalType": "address",
          "name": "",
          "type": "address"
        }
      ],
      "name": "noneReservedAmount",
      "outputs": [
        {
          "internalType": "uint256",
          "name": "",
          "type": "uint256"
        }
      ],
      "stateMutability": "view",
      "type": "function"
    },
    {
      "inputs": [
        {
          "internalType": "uint256",
          "name": "",
          "type": "uint256"
        }
      ],
      "name": "redeemedAmountMap",
      "outputs": [
        {
          "internalType": "address",
          "name": "token",
          "type": "address"
        },
        {
          "internalType": "uint256",
          "name": "amount",
          "type": "uint256"
        }
      ],
      "stateMutability": "view",
      "type": "function"
    },
    {
      "inputs": [
        {
          "internalType": "address",
          "name": "_address",
          "type": "address"
        }
      ],
      "name": "setSupportedToken",
      "outputs": [],
      "stateMutability": "nonpayable",
      "type": "function"
    },
    {
      "inputs": [
        {
          "internalType": "address",
          "name": "",
          "type": "address"
        }
      ],
      "name": "supportedTokensMap",
      "outputs": [
        {
          "internalType": "address",
          "name": "",
          "type": "address"
        }
      ],
      "stateMutability": "view",
      "type": "function"
    },
    {
      "inputs": [
        {
          "internalType": "address",
          "name": "",
          "type": "address"
        },
        {
          "internalType": "uint256",
          "name": "",
          "type": "uint256"
        }
      ],
      "name": "undertakenAgreementIds",
      "outputs": [
        {
          "internalType": "uint256",
          "name": "",
          "type": "uint256"
        }
      ],
      "stateMutability": "view",
      "type": "function"
    },
    {
      "inputs": [
        {
          "internalType": "uint256",
          "name": "",
          "type": "uint256"
        }
      ],
      "name": "vestingConditionMap",
      "outputs": [
        {
          "internalType": "uint256",
          "name": "cliff",
          "type": "uint256"
        },
        {
          "internalType": "uint256",
          "name": "duration",
          "type": "uint256"
        },
        {
          "internalType": "uint256",
          "name": "revokeDays",
          "type": "uint256"
        }
      ],
      "stateMutability": "view",
      "type": "function"
    },
    {
      "inputs": [
        {
          "internalType": "address",
          "name": "_with",
          "type": "address"
        }
      ],
      "name": "withdrawalAgreement",
      "outputs": [],
      "stateMutability": "nonpayable",
      "type": "function"
    }
  ],
  "bytecode": "0x608060405234801561001057600080fd5b50604051612b4a380380612b4a83398101604081905261002f91610035565b50610063565b600060208284031215610046578081fd5b81516001600160a01b038116811461005c578182fd5b9392505050565b612ad8806100726000396000f3fe60806040523480156200001157600080fd5b50600436106200015d5760003560e01c8063853d105e11620000c7578063bc2f2dcf1162000086578063bc2f2dcf1462000343578063bd14de96146200035a578063ca72595c1462000438578063d345ad571462000486578063dfd5268d1462000497578063eb5c68e714620004ae57600080fd5b8063853d105e14620002c157806389e0a68314620001a357806398776efa14620001bc57806399c8ab3014620002e7578063b7e3ee8f146200031557600080fd5b8063424690bb1162000120578063424690bb14620001e157806347e7ef24146200023757806353dc7813146200024e5780635fbd5bed14620001bc57806363cdf5dd14620002935780637c05798c14620002aa57600080fd5b806310ac0adc146200016257806317c4e305146200018c578063379607f514620001a55780633ecfebcd14620001bc5780633f270e6214620001d0575b600080fd5b620001796200017336600462001702565b620004c5565b6040519081526020015b60405180910390f35b620001a36200019d36600462001803565b620004f7565b005b620001a3620001b6366004620018f1565b62000523565b620001a3620001cd366004620016a7565b50565b620001a3620001cd3660046200172e565b62000217620001f2366004620018f1565b600460205260009081526040902080546001909101546001600160a01b039091169082565b604080516001600160a01b03909316835260208301919091520162000183565b620001a36200024836600462001702565b62000991565b6200027a6200025f366004620016a7565b6001602052600090815260409020546001600160a01b031681565b6040516001600160a01b03909116815260200162000183565b62000179620002a436600462001702565b62000c4c565b620001a3620002bb366004620018f1565b62000c69565b620002d8620002d2366004620016a7565b62000da0565b60405162000183919062001951565b62000179620002f8366004620016cb565b600360209081526000928352604080842090915290825290205481565b6200017962000326366004620016cb565b600260209081526000928352604080842090915290825290205481565b620001a362000354366004620016a7565b62000f5d565b620003d46200036b366004620018f1565b600660208190526000918252604090912080546001820154600283015460038401546004850154600586015496860154600787015460088801546009890154600a909901546001600160a01b039889169a9789169996989095169693959394929391929091908b565b604080516001600160a01b039c8d1681529a8c1660208c01528a0198909852989095166060880152608087019390935260a086019190915260c085015260e08401526101008301526101208201929092526101408101919091526101600162000183565b6200046a62000449366004620018f1565b60056020526000908152604090208054600182015460029092015490919083565b6040805193845260208401929092529082015260600162000183565b620001a3620001cd366004620018f1565b620002d8620004a8366004620016a7565b62000f9a565b620001a3620004bf36600462001803565b6200114e565b60076020528160005260406000208181548110620004e257600080fd5b90600052602060002001600091509150505481565b62000506600080546001019055565b6000546200051a8188888888888862001172565b50505050505050565b6000818152600660205260409020600101546001600160a01b03163314620005925760405162461bcd60e51b815260206004820152601b60248201527f494e56414c49443a204e4f542054484520554e44455254414b4552000000000060448201526064015b60405180910390fd5b600081815260066020526040812060030154620005b8906001600160a01b0316620013ff565b600083815260066020526040908190206005015490516370a0823160e01b8152336004820152919250906001600160a01b038316906370a082319060240160206040518083038186803b1580156200060f57600080fd5b505afa15801562000624573d6000803e3d6000fd5b505050506040513d601f19601f820116820180604052508101906200064a91906200190a565b1015620006935760405162461bcd60e51b815260206004820152601660248201527518d51bdad95b881a5cc81a5b9cdd59999a58da595b9d60521b604482015260640162000589565b6000828152600660205260409020600a0154421115620006e75760405162461bcd60e51b815260206004820152600e60248201526d10915193d4914814105654c8105560921b604482015260640162000589565b6200070d6040518060400160405280600381526020016268657960e81b815250620015a2565b6000828152600660205260408082206005015490516323b872dd60e01b815233600482015230602482015260448101919091526001600160a01b038316906323b872dd90606401602060405180830381600087803b1580156200076f57600080fd5b505af115801562000784573d6000803e3d6000fd5b505050506040513d601f19601f82011682018060405250810190620007aa9190620017e1565b905080620007f45760405162461bcd60e51b815260206004820152601660248201527518d51bdad95b881514905394d191548811905253115160521b604482015260640162000589565b600083815260066020526040808220600381015460059091015491516323b872dd60e01b815233600482015230602482015260448101929092526001600160a01b0316906323b872dd90606401602060405180830381600087803b1580156200085c57600080fd5b505af115801562000871573d6000803e3d6000fd5b505050506040513d601f19601f82011682018060405250810190620008979190620017e1565b905080620008e15760405162461bcd60e51b81526020600482015260166024820152751bd51bdad95b881514905394d191548811905253115160521b604482015260640162000589565b6000848152600660209081526040808320600581015481546001600160a01b03908116865260028552838620600390930154168552925282208054919290916200092d90849062001ab7565b9091555050600084815260066020908152604091829020600381015460059091015492519283526001600160a01b03169133917ff7a40077ff7a04c7e61f6f26fb13774259ddf1b6bce9ecf26a8276cdd3992683910160405180910390a350505050565b6040516370a0823160e01b8152336004820152829082906001600160a01b038316906370a082319060240160206040518083038186803b158015620009d557600080fd5b505afa158015620009ea573d6000803e3d6000fd5b505050506040513d601f19601f8201168201806040525081019062000a1091906200190a565b101562000a565760405162461bcd60e51b8152602060048201526013602482015272125394d551919250d251539508105353d55395606a1b604482015260640162000589565b6040516323b872dd60e01b8152336004820152306024820152604481018390526000906001600160a01b038316906323b872dd90606401602060405180830381600087803b15801562000aa857600080fd5b505af115801562000abd573d6000803e3d6000fd5b505050506040513d601f19601f8201168201806040525081019062000ae39190620017e1565b90508062000b205760405162461bcd60e51b815260206004820152600960248201526815160811905253115160ba1b604482015260640162000589565b3360009081526002602090815260408083206001600160a01b03881684529091528120805485929062000b5590849062001a9c565b90915550503360009081526003602090815260408083206001600160a01b03881684529091528120805485929062000b8f90849062001a9c565b909155506000905062000ba285620013ff565b60405163140e25ad60e31b8152600481018690529091506001600160a01b0382169063a0712d6890602401600060405180830381600087803b15801562000be857600080fd5b505af115801562000bfd573d6000803e3d6000fd5b5050604080516001600160a01b0389168152602081018890523393507f5548c837ab068cf56a2c2479df0882a4922fd203edb7517321831d95078c5f6292500160405180910390a25050505050565b60086020528160005260406000208181548110620004e257600080fd5b6000818152600660205260409020600101546001600160a01b0316331462000cd45760405162461bcd60e51b815260206004820152601b60248201527f494e56414c49443a204e4f542054484520554e44455254414b45520000000000604482015260640162000589565b60008181526006602052604081204260088201556003015462000d00906001600160a01b0316620013ff565b6000838152600660205260409081902060050154905163a9059cbb60e01b815233600482015260248101919091529091506001600160a01b0382169063a9059cbb90604401602060405180830381600087803b15801562000d6057600080fd5b505af115801562000d75573d6000803e3d6000fd5b505050506040513d601f19601f8201168201806040525081019062000d9b9190620017e1565b505050565b6001600160a01b038116600090815260076020526040812054606091808267ffffffffffffffff81111562000de557634e487b7160e01b600052604160045260246000fd5b60405190808252806020026020018201604052801562000e2257816020015b62000e0e62001604565b81526020019060019003908162000e045790505b50905060005b8381101562000f54576001600160a01b038616600090815260076020526040902080548290811062000e6a57634e487b7160e01b600052603260045260246000fd5b6000918252602080832090910154808352600680835260409384902084516101608101865281546001600160a01b03908116825260018301548116958201959095526002820154958101959095526003810154909316606085015260048301546080850152600583015460a085015282015460c0840152600782015460e084015260088201546101008401526009820154610120840152600a90910154610140830152835190945083908390811062000f3357634e487b7160e01b600052603260045260246000fd5b6020026020010181905250808062000f4b9062001b04565b91505062000e28565b50949350505050565b600062000f6a82620013ff565b6001600160a01b03928316600090815260016020526040902080546001600160a01b031916919093161790915550565b6001600160a01b038116600090815260086020526040812054606091808267ffffffffffffffff81111562000fdf57634e487b7160e01b600052604160045260246000fd5b6040519080825280602002602001820160405280156200101c57816020015b6200100862001604565b81526020019060019003908162000ffe5790505b50905060005b8381101562000f54576001600160a01b03861660009081526008602052604090208054829081106200106457634e487b7160e01b600052603260045260246000fd5b6000918252602080832090910154808352600680835260409384902084516101608101865281546001600160a01b03908116825260018301548116958201959095526002820154958101959095526003810154909316606085015260048301546080850152600583015460a085015282015460c0840152600782015460e084015260088201546101008401526009820154610120840152600a9091015461014083015283519094508390839081106200112d57634e487b7160e01b600052603260045260246000fd5b60200260200101819052508080620011459062001b04565b91505062001022565b6200115a848462000991565b6200116a868686868686620004f7565b505050505050565b3360009081526002602090815260408083206001600160a01b0388168452909152902054831115620011dd5760405162461bcd60e51b8152602060048201526013602482015272125394d551919250d251539508105353d55395606a1b604482015260640162000589565b3360009081526003602090815260408083206001600160a01b0388168452909152902054831115620012495760405162461bcd60e51b8152602060048201526014602482015273125394d551919250d25153950811115413d4d25560621b604482015260640162000589565b6040805161016081018252338082526001600160a01b038881166020808501919091528385018b905290881660608401819052608084018c905260a0840188905260c084018790524260e0850181905260006101008601819052610120860181905261014086018890529384526003835285842091845291529281208054879290620012d790849062001ab7565b9091555050336000818152600760208181526040808420805460018082018355918652838620018f90558e8552600680845294829020875181546001600160a01b03199081166001600160a01b039283161783558986015193830180548216948316949094179093558884015160028301556060808a0151600384018054909516908316179093556080890151600483015560a0890151600583015560c08901519682019690965560e08801519481019490945561010087015160088501556101208701516009850155610140870151600a9094019390935580518b851681529182018a90528101879052918a1692918c917f25a8583ed9646d64deb905da2e2227b191e906e67fcc5b34d08ed0237b1685e0910160405180910390a4505050505050505050565b6001600160a01b03808216600090815260016020526040812054909183911662001582576000816001600160a01b03166306fdde036040518163ffffffff1660e01b815260040160006040518083038186803b1580156200145f57600080fd5b505afa15801562001474573d6000803e3d6000fd5b505050506040513d6000823e601f3d908101601f191682016040526200149e91908101906200185f565b826001600160a01b03166395d89b416040518163ffffffff1660e01b815260040160006040518083038186803b158015620014d857600080fd5b505afa158015620014ed573d6000803e3d6000fd5b505050506040513d6000823e601f3d908101601f191682016040526200151791908101906200185f565b8560405162001526906200167c565b620015349392919062001a26565b604051809103906000f08015801562001551573d6000803e3d6000fd5b506001600160a01b0380861660009081526001602052604090208054919092166001600160a01b0319909116179055505b50506001600160a01b039081166000908152600160205260409020541690565b620001cd81604051602401620015b9919062001a11565b60408051601f198184030181529190526020810180516001600160e01b031663104c13eb60e21b17905280516a636f6e736f6c652e6c6f67602083016000808483855afa5050505050565b60405180610160016040528060006001600160a01b0316815260200160006001600160a01b031681526020016000801916815260200160006001600160a01b03168152602001600081526020016000815260200160008152602001600081526020016000815260200160008152602001600081525090565b610f548062001b4f83390190565b80356001600160a01b0381168114620016a257600080fd5b919050565b600060208284031215620016b9578081fd5b620016c4826200168a565b9392505050565b60008060408385031215620016de578081fd5b620016e9836200168a565b9150620016f9602084016200168a565b90509250929050565b6000806040838503121562001715578182fd5b62001720836200168a565b946020939093013593505050565b6000602080838503121562001741578182fd5b823567ffffffffffffffff8082111562001759578384fd5b818501915085601f8301126200176d578384fd5b81358181111562001782576200178262001b38565b8060051b91506200179584830162001a68565b8181528481019084860184860187018a1015620017b0578788fd5b8795505b83861015620017d4578035835260019590950194918601918601620017b4565b5098975050505050505050565b600060208284031215620017f3578081fd5b81518015158114620016c4578182fd5b60008060008060008060c087890312156200181c578182fd5b863595506200182e602088016200168a565b94506200183e604088016200168a565b9350606087013592506080870135915060a087013590509295509295509295565b60006020828403121562001871578081fd5b815167ffffffffffffffff8082111562001889578283fd5b818401915084601f8301126200189d578283fd5b815181811115620018b257620018b262001b38565b620018c7601f8201601f191660200162001a68565b9150808252856020828501011115620018de578384fd5b62000f5481602084016020860162001ad1565b60006020828403121562001903578081fd5b5035919050565b6000602082840312156200191c578081fd5b5051919050565b600081518084526200193d81602086016020860162001ad1565b601f01601f19169290920160200192915050565b602080825282518282018190526000919060409081850190868401855b8281101562001a0457815180516001600160a01b039081168652878201518116888701528682015187870152606080830151909116908601526080808201519086015260a0808201519086015260c0808201519086015260e0808201519086015261010080820151908601526101208082015190860152610140908101519085015261016090930192908501906001016200196e565b5091979650505050505050565b602081526000620016c4602083018462001923565b60608152600062001a3b606083018662001923565b828103602084015262001a4f818662001923565b91505060018060a01b0383166040830152949350505050565b604051601f8201601f1916810167ffffffffffffffff8111828210171562001a945762001a9462001b38565b604052919050565b6000821982111562001ab25762001ab262001b22565b500190565b60008282101562001acc5762001acc62001b22565b500390565b60005b8381101562001aee57818101518382015260200162001ad4565b8381111562001afe576000848401525b50505050565b600060001982141562001b1b5762001b1b62001b22565b5060010190565b634e487b7160e01b600052601160045260246000fd5b634e487b7160e01b600052604160045260246000fdfe60806040523480156200001157600080fd5b5060405162000f5438038062000f5483398101604081905262000034916200020e565b8260405160200162000047919062000297565b6040516020818303038152906040528260405160200162000069919062000297565b60408051601f1981840301815291905281516200008e906003906020850190620000d9565b508051620000a4906004906020840190620000d9565b5050600580546001600160a01b039093166001600160a01b031993841617905550600680549091163317905550620003489050565b828054620000e790620002f5565b90600052602060002090601f0160209004810192826200010b576000855562000156565b82601f106200012657805160ff191683800117855562000156565b8280016001018555821562000156579182015b828111156200015657825182559160200191906001019062000139565b506200016492915062000168565b5090565b5b8082111562000164576000815560010162000169565b600082601f83011262000190578081fd5b81516001600160401b0380821115620001ad57620001ad62000332565b604051601f8301601f19908116603f01168101908282118183101715620001d857620001d862000332565b81604052838152866020858801011115620001f1578485fd5b62000204846020830160208901620002c2565b9695505050505050565b60008060006060848603121562000223578283fd5b83516001600160401b03808211156200023a578485fd5b62000248878388016200017f565b945060208601519150808211156200025e578384fd5b506200026d868287016200017f565b604086015190935090506001600160a01b03811681146200028c578182fd5b809150509250925092565b606360f81b815260008251620002b5816001850160208701620002c2565b9190910160010192915050565b60005b83811015620002df578181015183820152602001620002c5565b83811115620002ef576000848401525b50505050565b600181811c908216806200030a57607f821691505b602082108114156200032c57634e487b7160e01b600052602260045260246000fd5b50919050565b634e487b7160e01b600052604160045260246000fd5b610bfc80620003586000396000f3fe608060405234801561001057600080fd5b50600436106100f55760003560e01c806342966c6811610097578063a457c2d711610066578063a457c2d714610206578063a9059cbb14610219578063c45a01551461022c578063dd62ed3e1461023f57600080fd5b806342966c68146101ad57806370a08231146101c257806395d89b41146101eb578063a0712d68146101f357600080fd5b80631a32aad6116100d35780631a32aad61461014d57806323b872dd14610178578063313ce5671461018b578063395093511461019a57600080fd5b806306fdde03146100fa578063095ea7b31461011857806318160ddd1461013b575b600080fd5b610102610252565b60405161010f9190610af3565b60405180910390f35b61012b610126366004610ab2565b6102e4565b604051901515815260200161010f565b6002545b60405190815260200161010f565b600554610160906001600160a01b031681565b6040516001600160a01b03909116815260200161010f565b61012b610186366004610a77565b6102fc565b6040516012815260200161010f565b61012b6101a8366004610ab2565b610320565b6101c06101bb366004610adb565b610342565b005b61013f6101d0366004610a24565b6001600160a01b031660009081526020819052604090205490565b61010261034f565b6101c0610201366004610adb565b61035e565b61012b610214366004610ab2565b6103c2565b61012b610227366004610ab2565b61043d565b600654610160906001600160a01b031681565b61013f61024d366004610a45565b61044b565b60606003805461026190610b75565b80601f016020809104026020016040519081016040528092919081815260200182805461028d90610b75565b80156102da5780601f106102af576101008083540402835291602001916102da565b820191906000526020600020905b8154815290600101906020018083116102bd57829003601f168201915b5050505050905090565b6000336102f2818585610476565b5060019392505050565b60003361030a85828561059b565b610315858585610615565b506001949350505050565b6000336102f2818585610333838361044b565b61033d9190610b46565b610476565b61034c33826107e3565b50565b60606004805461026190610b75565b6006546001600160a01b031633146103ac5760405162461bcd60e51b815260206004820152600c60248201526b4f4e4c5920466163746f727960a01b60448201526064015b60405180910390fd5b60065461034c906001600160a01b031682610929565b600033816103d0828661044b565b9050838110156104305760405162461bcd60e51b815260206004820152602560248201527f45524332303a2064656372656173656420616c6c6f77616e63652062656c6f77604482015264207a65726f60d81b60648201526084016103a3565b6103158286868403610476565b6000336102f2818585610615565b6001600160a01b03918216600090815260016020908152604080832093909416825291909152205490565b6001600160a01b0383166104d85760405162461bcd60e51b8152602060048201526024808201527f45524332303a20617070726f76652066726f6d20746865207a65726f206164646044820152637265737360e01b60648201526084016103a3565b6001600160a01b0382166105395760405162461bcd60e51b815260206004820152602260248201527f45524332303a20617070726f766520746f20746865207a65726f206164647265604482015261737360f01b60648201526084016103a3565b6001600160a01b0383811660008181526001602090815260408083209487168084529482529182902085905590518481527f8c5be1e5ebec7d5bd14f71427d1e84f3dd0314c0f7b2291e5b200ac8c7c3b92591015b60405180910390a3505050565b60006105a7848461044b565b9050600019811461060f57818110156106025760405162461bcd60e51b815260206004820152601d60248201527f45524332303a20696e73756666696369656e7420616c6c6f77616e636500000060448201526064016103a3565b61060f8484848403610476565b50505050565b6001600160a01b0383166106795760405162461bcd60e51b815260206004820152602560248201527f45524332303a207472616e736665722066726f6d20746865207a65726f206164604482015264647265737360d81b60648201526084016103a3565b6001600160a01b0382166106db5760405162461bcd60e51b815260206004820152602360248201527f45524332303a207472616e7366657220746f20746865207a65726f206164647260448201526265737360e81b60648201526084016103a3565b6001600160a01b038316600090815260208190526040902054818110156107535760405162461bcd60e51b815260206004820152602660248201527f45524332303a207472616e7366657220616d6f756e7420657863656564732062604482015265616c616e636560d01b60648201526084016103a3565b6001600160a01b0380851660009081526020819052604080822085850390559185168152908120805484929061078a908490610b46565b92505081905550826001600160a01b0316846001600160a01b03167fddf252ad1be2c89b69c2b068fc378daa952ba7f163c4a11628f55a4df523b3ef846040516107d691815260200190565b60405180910390a361060f565b6001600160a01b0382166108435760405162461bcd60e51b815260206004820152602160248201527f45524332303a206275726e2066726f6d20746865207a65726f206164647265736044820152607360f81b60648201526084016103a3565b6001600160a01b038216600090815260208190526040902054818110156108b75760405162461bcd60e51b815260206004820152602260248201527f45524332303a206275726e20616d6f756e7420657863656564732062616c616e604482015261636560f01b60648201526084016103a3565b6001600160a01b03831660009081526020819052604081208383039055600280548492906108e6908490610b5e565b90915550506040518281526000906001600160a01b038516907fddf252ad1be2c89b69c2b068fc378daa952ba7f163c4a11628f55a4df523b3ef9060200161058e565b6001600160a01b03821661097f5760405162461bcd60e51b815260206004820152601f60248201527f45524332303a206d696e7420746f20746865207a65726f20616464726573730060448201526064016103a3565b80600260008282546109919190610b46565b90915550506001600160a01b038216600090815260208190526040812080548392906109be908490610b46565b90915550506040518181526001600160a01b038316906000907fddf252ad1be2c89b69c2b068fc378daa952ba7f163c4a11628f55a4df523b3ef9060200160405180910390a35050565b80356001600160a01b0381168114610a1f57600080fd5b919050565b600060208284031215610a35578081fd5b610a3e82610a08565b9392505050565b60008060408385031215610a57578081fd5b610a6083610a08565b9150610a6e60208401610a08565b90509250929050565b600080600060608486031215610a8b578081fd5b610a9484610a08565b9250610aa260208501610a08565b9150604084013590509250925092565b60008060408385031215610ac4578182fd5b610acd83610a08565b946020939093013593505050565b600060208284031215610aec578081fd5b5035919050565b6000602080835283518082850152825b81811015610b1f57858101830151858201604001528201610b03565b81811115610b305783604083870101525b50601f01601f1916929092016040019392505050565b60008219821115610b5957610b59610bb0565b500190565b600082821015610b7057610b70610bb0565b500390565b600181811c90821680610b8957607f821691505b60208210811415610baa57634e487b7160e01b600052602260045260246000fd5b50919050565b634e487b7160e01b600052601160045260246000fdfea26469706673582212204145043525687d078eb982347b6542ca3d44289932c02743531d6fee05d669d764736f6c63430008040033a2646970667358221220ee78b152ea1c0402dfcbea2db5325cda44e614ae597c47b1026707d27adfcd6564736f6c63430008040033",
  "linkReferences": {},
  "deployedLinkReferences": {}
}