{
  "_format": "hh-sol-artifact-1",
  "contractName": "Shiharai",
  "sourceName": "contracts/Shiharai.sol",
  "abi": [
    {
      "inputs": [
        {
          "internalType": "address",
          "name": "_erc20",
          "type": "address"
        }
      ],
      "stateMutability": "nonpayable",
      "type": "constructor"
    },
    {
      "anonymous": false,
      "inputs": [
        {
          "indexed": false,
          "internalType": "address",
          "name": "with",
          "type": "address"
        },
        {
          "indexed": false,
          "internalType": "uint256",
          "name": "amount",
          "type": "uint256"
        },
        {
          "indexed": false,
          "internalType": "uint256",
          "name": "term",
          "type": "uint256"
        },
        {
          "indexed": false,
          "internalType": "uint256",
          "name": "timestamp",
          "type": "uint256"
        }
      ],
      "name": "Agreed",
      "type": "event"
    },
    {
      "anonymous": false,
      "inputs": [
        {
          "indexed": false,
          "internalType": "address",
          "name": "to",
          "type": "address"
        }
      ],
      "name": "Claimed",
      "type": "event"
    },
    {
      "anonymous": false,
      "inputs": [
        {
          "indexed": true,
          "internalType": "address",
          "name": "issuer",
          "type": "address"
        },
        {
          "indexed": false,
          "internalType": "address",
          "name": "token",
          "type": "address"
        },
        {
          "indexed": false,
          "internalType": "uint256",
          "name": "amount",
          "type": "uint256"
        }
      ],
      "name": "Deposit",
      "type": "event"
    },
    {
      "anonymous": false,
      "inputs": [
        {
          "indexed": true,
          "internalType": "uint256",
          "name": "id",
          "type": "uint256"
        },
        {
          "indexed": true,
          "internalType": "address",
          "name": "issuer",
          "type": "address"
        },
        {
          "indexed": true,
          "internalType": "address",
          "name": "with",
          "type": "address"
        },
        {
          "indexed": false,
          "internalType": "address",
          "name": "token",
          "type": "address"
        },
        {
          "indexed": false,
          "internalType": "uint256",
          "name": "amount",
          "type": "uint256"
        },
        {
          "indexed": false,
          "internalType": "uint256",
          "name": "paysAt",
          "type": "uint256"
        }
      ],
      "name": "IssuedAgreement",
      "type": "event"
    },
    {
      "inputs": [
        {
          "internalType": "address",
          "name": "_protocol",
          "type": "address"
        }
      ],
      "name": "addLendingProtocol",
      "outputs": [],
      "stateMutability": "nonpayable",
      "type": "function"
    },
    {
      "inputs": [
        {
          "internalType": "uint256",
          "name": "",
          "type": "uint256"
        }
      ],
      "name": "agreements",
      "outputs": [
        {
          "internalType": "address",
          "name": "issuer",
          "type": "address"
        },
        {
          "internalType": "address",
          "name": "undertaker",
          "type": "address"
        },
        {
          "internalType": "bytes32",
          "name": "name",
          "type": "bytes32"
        },
        {
          "internalType": "address",
          "name": "payment",
          "type": "address"
        },
        {
          "internalType": "uint256",
          "name": "id",
          "type": "uint256"
        },
        {
          "internalType": "uint256",
          "name": "amount",
          "type": "uint256"
        },
        {
          "internalType": "uint256",
          "name": "term",
          "type": "uint256"
        },
        {
          "internalType": "uint256",
          "name": "issuedAt",
          "type": "uint256"
        },
        {
          "internalType": "uint256",
          "name": "confirmedAt",
          "type": "uint256"
        },
        {
          "internalType": "uint256",
          "name": "continuesAt",
          "type": "uint256"
        },
        {
          "internalType": "uint256",
          "name": "paysAt",
          "type": "uint256"
        }
      ],
      "stateMutability": "view",
      "type": "function"
    },
    {
      "inputs": [
        {
          "internalType": "address",
          "name": "_spender",
          "type": "address"
        }
      ],
      "name": "approveof",
      "outputs": [],
      "stateMutability": "nonpayable",
      "type": "function"
    },
    {
      "inputs": [],
      "name": "claim",
      "outputs": [],
      "stateMutability": "nonpayable",
      "type": "function"
    },
    {
      "inputs": [],
      "name": "claimForLendingProctol",
      "outputs": [],
      "stateMutability": "nonpayable",
      "type": "function"
    },
    {
      "inputs": [
        {
          "internalType": "uint256",
          "name": "_id",
          "type": "uint256"
        }
      ],
      "name": "confirmAgreement",
      "outputs": [],
      "stateMutability": "nonpayable",
      "type": "function"
    },
    {
      "inputs": [
        {
          "internalType": "uint256",
          "name": "_id",
          "type": "uint256"
        }
      ],
      "name": "continueAgreement",
      "outputs": [],
      "stateMutability": "nonpayable",
      "type": "function"
    },
    {
      "inputs": [
        {
          "internalType": "uint256[]",
          "name": "_ids",
          "type": "uint256[]"
        }
      ],
      "name": "continueAgreements",
      "outputs": [],
      "stateMutability": "nonpayable",
      "type": "function"
    },
    {
      "inputs": [
        {
          "internalType": "address",
          "name": "_token",
          "type": "address"
        },
        {
          "internalType": "uint256",
          "name": "_amount",
          "type": "uint256"
        }
      ],
      "name": "deposit",
      "outputs": [],
      "stateMutability": "nonpayable",
      "type": "function"
    },
    {
      "inputs": [
        {
          "internalType": "bytes32",
          "name": "_name",
          "type": "bytes32"
        },
        {
          "internalType": "address",
          "name": "_with",
          "type": "address"
        },
        {
          "internalType": "address",
          "name": "_token",
          "type": "address"
        },
        {
          "internalType": "uint256",
          "name": "_amount",
          "type": "uint256"
        },
        {
          "internalType": "uint256",
          "name": "_term",
          "type": "uint256"
        },
        {
          "internalType": "uint256",
          "name": "_paysAt",
          "type": "uint256"
        }
      ],
      "name": "depositAndissueAgreement",
      "outputs": [],
      "stateMutability": "nonpayable",
      "type": "function"
    },
    {
      "inputs": [
        {
          "internalType": "address",
          "name": "",
          "type": "address"
        },
        {
          "internalType": "address",
          "name": "",
          "type": "address"
        }
      ],
      "name": "depositedAmountMap",
      "outputs": [
        {
          "internalType": "uint256",
          "name": "",
          "type": "uint256"
        }
      ],
      "stateMutability": "view",
      "type": "function"
    },
    {
      "inputs": [
        {
          "internalType": "address",
          "name": "protocol",
          "type": "address"
        }
      ],
      "name": "getIssuersAgreements",
      "outputs": [
        {
          "components": [
            {
              "internalType": "address",
              "name": "issuer",
              "type": "address"
            },
            {
              "internalType": "address",
              "name": "undertaker",
              "type": "address"
            },
            {
              "internalType": "bytes32",
              "name": "name",
              "type": "bytes32"
            },
            {
              "internalType": "address",
              "name": "payment",
              "type": "address"
            },
            {
              "internalType": "uint256",
              "name": "id",
              "type": "uint256"
            },
            {
              "internalType": "uint256",
              "name": "amount",
              "type": "uint256"
            },
            {
              "internalType": "uint256",
              "name": "term",
              "type": "uint256"
            },
            {
              "internalType": "uint256",
              "name": "issuedAt",
              "type": "uint256"
            },
            {
              "internalType": "uint256",
              "name": "confirmedAt",
              "type": "uint256"
            },
            {
              "internalType": "uint256",
              "name": "continuesAt",
              "type": "uint256"
            },
            {
              "internalType": "uint256",
              "name": "paysAt",
              "type": "uint256"
            }
          ],
          "internalType": "struct Shiharai.Agreement[]",
          "name": "",
          "type": "tuple[]"
        }
      ],
      "stateMutability": "view",
      "type": "function"
    },
    {
      "inputs": [
        {
          "internalType": "address",
          "name": "_taker",
          "type": "address"
        }
      ],
      "name": "getUnderTakersAgreements",
      "outputs": [
        {
          "components": [
            {
              "internalType": "address",
              "name": "issuer",
              "type": "address"
            },
            {
              "internalType": "address",
              "name": "undertaker",
              "type": "address"
            },
            {
              "internalType": "bytes32",
              "name": "name",
              "type": "bytes32"
            },
            {
              "internalType": "address",
              "name": "payment",
              "type": "address"
            },
            {
              "internalType": "uint256",
              "name": "id",
              "type": "uint256"
            },
            {
              "internalType": "uint256",
              "name": "amount",
              "type": "uint256"
            },
            {
              "internalType": "uint256",
              "name": "term",
              "type": "uint256"
            },
            {
              "internalType": "uint256",
              "name": "issuedAt",
              "type": "uint256"
            },
            {
              "internalType": "uint256",
              "name": "confirmedAt",
              "type": "uint256"
            },
            {
              "internalType": "uint256",
              "name": "continuesAt",
              "type": "uint256"
            },
            {
              "internalType": "uint256",
              "name": "paysAt",
              "type": "uint256"
            }
          ],
          "internalType": "struct Shiharai.Agreement[]",
          "name": "",
          "type": "tuple[]"
        }
      ],
      "stateMutability": "view",
      "type": "function"
    },
    {
      "inputs": [
        {
          "internalType": "bytes32",
          "name": "_name",
          "type": "bytes32"
        },
        {
          "internalType": "address",
          "name": "_with",
          "type": "address"
        },
        {
          "internalType": "address",
          "name": "_token",
          "type": "address"
        },
        {
          "internalType": "uint256",
          "name": "_amount",
          "type": "uint256"
        },
        {
          "internalType": "uint256",
          "name": "_term",
          "type": "uint256"
        },
        {
          "internalType": "uint256",
          "name": "_paysAt",
          "type": "uint256"
        }
      ],
      "name": "issueAgreement",
      "outputs": [],
      "stateMutability": "nonpayable",
      "type": "function"
    },
    {
      "inputs": [
        {
          "internalType": "address",
          "name": "",
          "type": "address"
        },
        {
          "internalType": "uint256",
          "name": "",
          "type": "uint256"
        }
      ],
      "name": "issuerAgreementsIds",
      "outputs": [
        {
          "internalType": "uint256",
          "name": "",
          "type": "uint256"
        }
      ],
      "stateMutability": "view",
      "type": "function"
    },
    {
      "inputs": [
        {
          "internalType": "address",
          "name": "",
          "type": "address"
        },
        {
          "internalType": "address",
          "name": "",
          "type": "address"
        }
      ],
      "name": "noneReservedAmount",
      "outputs": [
        {
          "internalType": "uint256",
          "name": "",
          "type": "uint256"
        }
      ],
      "stateMutability": "view",
      "type": "function"
    },
    {
      "inputs": [
        {
          "internalType": "uint256",
          "name": "",
          "type": "uint256"
        }
      ],
      "name": "redeemedAmountMap",
      "outputs": [
        {
          "internalType": "address",
          "name": "token",
          "type": "address"
        },
        {
          "internalType": "uint256",
          "name": "amount",
          "type": "uint256"
        }
      ],
      "stateMutability": "view",
      "type": "function"
    },
    {
      "inputs": [
        {
          "internalType": "address",
          "name": "_address",
          "type": "address"
        }
      ],
      "name": "setSupportedToken",
      "outputs": [],
      "stateMutability": "nonpayable",
      "type": "function"
    },
    {
      "inputs": [
        {
          "internalType": "address",
          "name": "",
          "type": "address"
        }
      ],
      "name": "supportedTokensMap",
      "outputs": [
        {
          "internalType": "address",
          "name": "",
          "type": "address"
        }
      ],
      "stateMutability": "view",
      "type": "function"
    },
    {
      "inputs": [
        {
          "internalType": "address",
          "name": "",
          "type": "address"
        },
        {
          "internalType": "uint256",
          "name": "",
          "type": "uint256"
        }
      ],
      "name": "undertakenAgreementIds",
      "outputs": [
        {
          "internalType": "uint256",
          "name": "",
          "type": "uint256"
        }
      ],
      "stateMutability": "view",
      "type": "function"
    },
    {
      "inputs": [
        {
          "internalType": "uint256",
          "name": "",
          "type": "uint256"
        }
      ],
      "name": "vestingConditionMap",
      "outputs": [
        {
          "internalType": "uint256",
          "name": "cliff",
          "type": "uint256"
        },
        {
          "internalType": "uint256",
          "name": "duration",
          "type": "uint256"
        },
        {
          "internalType": "uint256",
          "name": "revokeDays",
          "type": "uint256"
        }
      ],
      "stateMutability": "view",
      "type": "function"
    },
    {
      "inputs": [
        {
          "internalType": "address",
          "name": "_with",
          "type": "address"
        }
      ],
      "name": "withdrawalAgreement",
      "outputs": [],
      "stateMutability": "nonpayable",
      "type": "function"
    }
  ],
  "bytecode": "0x608060405234801561001057600080fd5b506040516112a03803806112a083398101604081905261002f91610063565b61005d816001600160a01b0316600081815260016020526040902080546001600160a01b0319169091179055565b50610091565b600060208284031215610074578081fd5b81516001600160a01b038116811461008a578182fd5b9392505050565b611200806100a06000396000f3fe608060405234801561001057600080fd5b50600436106101425760003560e01c8063853d105e116100b8578063bc2f2dcf1161007c578063bc2f2dcf146102e3578063bd14de961461031b578063ca72595c146103f5578063d345ad571461043f578063dfd5268d1461044d578063eb5c68e71461046057600080fd5b8063853d105e1461026d57806389e0a6831461018057806398776efa1461018257806399c8ab301461028d578063b7e3ee8f146102b857600080fd5b806347e7ef241161010a57806347e7ef24146101f35780634e71d92d1461018057806353dc7813146102065780635fbd5bed1461018257806363cdf5dd146102475780637c05798c1461025a57600080fd5b806310ac0adc1461014757806317c4e3051461016d5780633ecfebcd146101825780633f270e6214610193578063424690bb146101a1575b600080fd5b61015a610155366004610f06565b610473565b6040519081526020015b60405180910390f35b61018061017b36600461100f565b6104a4565b005b610180610190366004610eb3565b50565b610180610190366004610f2f565b6101d46101af366004611066565b600460205260009081526040902080546001909101546001600160a01b039091169082565b604080516001600160a01b039093168352602083019190915201610164565b610180610201366004610f06565b6104cd565b61022f610214366004610eb3565b6001602052600090815260409020546001600160a01b031681565b6040516001600160a01b039091168152602001610164565b61015a610255366004610f06565b61070c565b610180610268366004611066565b610728565b61028061027b366004610eb3565b6107a8565b6040516101649190611096565b61015a61029b366004610ed4565b600360209081526000928352604080842090915290825290205481565b61015a6102c6366004610ed4565b600260209081526000928352604080842090915290825290205481565b6101806102f1366004610eb3565b6001600160a01b0316600081815260016020526040902080546001600160a01b0319169091179055565b610392610329366004611066565b600660208190526000918252604090912080546001820154600283015460038401546004850154600586015496860154600787015460088801546009890154600a909901546001600160a01b039889169a9789169996989095169693959394929391929091908b565b604080516001600160a01b039c8d1681529a8c1660208c01528a0198909852989095166060880152608087019390935260a086019190915260c085015260e084015261010083015261012082019290925261014081019190915261016001610164565b610424610403366004611066565b60056020526000908152604090208054600182015460029092015490919083565b60408051938452602084019290925290820152606001610164565b610180610190366004611066565b61028061045b366004610eb3565b610964565b61018061046e36600461100f565b610b17565b6007602052816000526040600020818154811061048f57600080fd5b90600052602060002001600091509150505481565b6104b2600080546001019055565b6000546104c481888888888888610b37565b50505050505050565b6040516370a0823160e01b815233600482015281906001600160a01b038416906370a082319060240160206040518083038186803b15801561050e57600080fd5b505afa158015610522573d6000803e3d6000fd5b505050506040513d601f19601f82011682018060405250810190610546919061107e565b101561058f5760405162461bcd60e51b8152602060048201526013602482015272125394d551919250d251539508105353d55395606a1b60448201526064015b60405180910390fd5b6040516323b872dd60e01b8152336004820152306024820152604481018290526000906001600160a01b038416906323b872dd90606401602060405180830381600087803b1580156105e057600080fd5b505af11580156105f4573d6000803e3d6000fd5b505050506040513d601f19601f820116820180604052508101906106189190610fef565b9050806106535760405162461bcd60e51b815260206004820152600960248201526815160811905253115160ba1b6044820152606401610586565b3360009081526002602090815260408083206001600160a01b038716845290915281208054849290610686908490611154565b90915550503360009081526003602090815260408083206001600160a01b0387168452909152812080548492906106be908490611154565b9091555050604080516001600160a01b03851681526020810184905233917f5548c837ab068cf56a2c2479df0882a4922fd203edb7517321831d95078c5f62910160405180910390a2505050565b6008602052816000526040600020818154811061048f57600080fd5b6000818152600660205260409020600101546001600160a01b031633146107915760405162461bcd60e51b815260206004820152601b60248201527f494e56414c49443a204e4f542054484520554e44455254414b455200000000006044820152606401610586565b600090815260066020526040902042600890910155565b6001600160a01b0381166000908152600760205260408120546060916107cd82610dbe565b60008267ffffffffffffffff8111156107f657634e487b7160e01b600052604160045260246000fd5b60405190808252806020026020018201604052801561082f57816020015b61081c610e1f565b8152602001906001900390816108145790505b50905060005b8381101561095b576001600160a01b038616600090815260076020526040902080548290811061087557634e487b7160e01b600052603260045260246000fd5b6000918252602080832090910154808352600680835260409384902084516101608101865281546001600160a01b03908116825260018301548116958201959095526002820154958101959095526003810154909316606085015260048301546080850152600583015460a085015282015460c0840152600782015460e084015260088201546101008401526009820154610120840152600a90910154610140830152835190945083908390811061093d57634e487b7160e01b600052603260045260246000fd5b6020026020010181905250808061095390611183565b915050610835565b50949350505050565b6001600160a01b03811660009081526008602052604081205460609161098982610dbe565b60008267ffffffffffffffff8111156109b257634e487b7160e01b600052604160045260246000fd5b6040519080825280602002602001820160405280156109eb57816020015b6109d8610e1f565b8152602001906001900390816109d05790505b50905060005b8381101561095b576001600160a01b0386166000908152600860205260409020805482908110610a3157634e487b7160e01b600052603260045260246000fd5b6000918252602080832090910154808352600680835260409384902084516101608101865281546001600160a01b03908116825260018301548116958201959095526002820154958101959095526003810154909316606085015260048301546080850152600583015460a085015282015460c0840152600782015460e084015260088201546101008401526009820154610120840152600a909101546101408301528351909450839083908110610af957634e487b7160e01b600052603260045260246000fd5b60200260200101819052508080610b0f90611183565b9150506109f1565b610b2184846104cd565b610b2f8686868686866104a4565b505050505050565b3360009081526002602090815260408083206001600160a01b0388168452909152902054831115610ba05760405162461bcd60e51b8152602060048201526013602482015272125394d551919250d251539508105353d55395606a1b6044820152606401610586565b3360009081526003602090815260408083206001600160a01b0388168452909152902054831115610c0a5760405162461bcd60e51b8152602060048201526014602482015273125394d551919250d25153950811115413d4d25560621b6044820152606401610586565b6040805161016081018252338082526001600160a01b038881166020808501919091528385018b905290881660608401819052608084018c905260a0840188905260c084018790524260e0850181905260006101008601819052610120860181905261014086018890529384526003835285842091845291529281208054879290610c9690849061116c565b9091555050336000818152600760208181526040808420805460018082018355918652838620018f90558e8552600680845294829020875181546001600160a01b03199081166001600160a01b039283161783558986015193830180548216948316949094179093558884015160028301556060808a0151600384018054909516908316179093556080890151600483015560a0890151600583015560c08901519682019690965560e08801519481019490945561010087015160088501556101208701516009850155610140870151600a9094019390935580518b851681529182018a90528101879052918a1692918c917f25a8583ed9646d64deb905da2e2227b191e906e67fcc5b34d08ed0237b1685e0910160405180910390a4505050505050505050565b61019081604051602401610dd491815260200190565b60408051601f198184030181529190526020810180516001600160e01b031663f5b1bba960e01b17905280516a636f6e736f6c652e6c6f67602083016000808483855afa5050505050565b60405180610160016040528060006001600160a01b0316815260200160006001600160a01b031681526020016000801916815260200160006001600160a01b03168152602001600081526020016000815260200160008152602001600081526020016000815260200160008152602001600081525090565b80356001600160a01b0381168114610eae57600080fd5b919050565b600060208284031215610ec4578081fd5b610ecd82610e97565b9392505050565b60008060408385031215610ee6578081fd5b610eef83610e97565b9150610efd60208401610e97565b90509250929050565b60008060408385031215610f18578182fd5b610f2183610e97565b946020939093013593505050565b60006020808385031215610f41578182fd5b823567ffffffffffffffff80821115610f58578384fd5b818501915085601f830112610f6b578384fd5b813581811115610f7d57610f7d6111b4565b8060051b604051601f19603f83011681018181108582111715610fa257610fa26111b4565b604052828152858101935084860182860187018a1015610fc0578788fd5b8795505b83861015610fe2578035855260019590950194938601938601610fc4565b5098975050505050505050565b600060208284031215611000578081fd5b81518015158114610ecd578182fd5b60008060008060008060c08789031215611027578182fd5b8635955061103760208801610e97565b945061104560408801610e97565b9350606087013592506080870135915060a087013590509295509295509295565b600060208284031215611077578081fd5b5035919050565b60006020828403121561108f578081fd5b5051919050565b602080825282518282018190526000919060409081850190868401855b8281101561114757815180516001600160a01b039081168652878201518116888701528682015187870152606080830151909116908601526080808201519086015260a0808201519086015260c0808201519086015260e0808201519086015261010080820151908601526101208082015190860152610140908101519085015261016090930192908501906001016110b3565b5091979650505050505050565b600082198211156111675761116761119e565b500190565b60008282101561117e5761117e61119e565b500390565b60006000198214156111975761119761119e565b5060010190565b634e487b7160e01b600052601160045260246000fd5b634e487b7160e01b600052604160045260246000fdfea2646970667358221220e807c616c168d6cb98b70e82c3994c2a13ed1695f507c3455abe0bf46bd1f1b364736f6c63430008040033",
  "linkReferences": {},
  "deployedLinkReferences": {}
}