{
  "_format": "hh-sol-artifact-1",
  "contractName": "Shiharai",
  "sourceName": "contracts/Shiharai.sol",
  "abi": [
    {
      "inputs": [
        {
          "internalType": "address",
          "name": "_erc20",
          "type": "address"
        }
      ],
      "stateMutability": "nonpayable",
      "type": "constructor"
    },
    {
      "anonymous": false,
      "inputs": [
        {
          "indexed": true,
          "internalType": "address",
          "name": "by",
          "type": "address"
        },
        {
          "indexed": true,
          "internalType": "address",
          "name": "token",
          "type": "address"
        },
        {
          "indexed": false,
          "internalType": "uint256",
          "name": "amount",
          "type": "uint256"
        }
      ],
      "name": "Claimed",
      "type": "event"
    },
    {
      "anonymous": false,
      "inputs": [
        {
          "indexed": true,
          "internalType": "uint256",
          "name": "id",
          "type": "uint256"
        },
        {
          "indexed": true,
          "internalType": "address",
          "name": "issure",
          "type": "address"
        },
        {
          "indexed": true,
          "internalType": "address",
          "name": "with",
          "type": "address"
        },
        {
          "indexed": false,
          "internalType": "address",
          "name": "token",
          "type": "address"
        },
        {
          "indexed": false,
          "internalType": "uint256",
          "name": "amount",
          "type": "uint256"
        },
        {
          "indexed": false,
          "internalType": "uint256",
          "name": "paysAt",
          "type": "uint256"
        },
        {
          "indexed": false,
          "internalType": "uint256",
          "name": "confirmedAt",
          "type": "uint256"
        }
      ],
      "name": "ConfirmAgreement",
      "type": "event"
    },
    {
      "anonymous": false,
      "inputs": [
        {
          "indexed": true,
          "internalType": "uint256",
          "name": "id",
          "type": "uint256"
        },
        {
          "indexed": true,
          "internalType": "address",
          "name": "issuer",
          "type": "address"
        },
        {
          "indexed": true,
          "internalType": "address",
          "name": "with",
          "type": "address"
        },
        {
          "indexed": false,
          "internalType": "uint256",
          "name": "previousId",
          "type": "uint256"
        },
        {
          "indexed": false,
          "internalType": "address",
          "name": "token",
          "type": "address"
        },
        {
          "indexed": false,
          "internalType": "uint256",
          "name": "amount",
          "type": "uint256"
        },
        {
          "indexed": false,
          "internalType": "uint256",
          "name": "paysAt",
          "type": "uint256"
        }
      ],
      "name": "ContinueAgreement",
      "type": "event"
    },
    {
      "anonymous": false,
      "inputs": [
        {
          "indexed": true,
          "internalType": "address",
          "name": "issuer",
          "type": "address"
        },
        {
          "indexed": false,
          "internalType": "address",
          "name": "token",
          "type": "address"
        },
        {
          "indexed": false,
          "internalType": "uint256",
          "name": "amount",
          "type": "uint256"
        }
      ],
      "name": "Deposit",
      "type": "event"
    },
    {
      "anonymous": false,
      "inputs": [
        {
          "indexed": true,
          "internalType": "uint256",
          "name": "id",
          "type": "uint256"
        },
        {
          "indexed": true,
          "internalType": "address",
          "name": "issuer",
          "type": "address"
        },
        {
          "indexed": true,
          "internalType": "address",
          "name": "with",
          "type": "address"
        },
        {
          "indexed": false,
          "internalType": "address",
          "name": "token",
          "type": "address"
        },
        {
          "indexed": false,
          "internalType": "uint256",
          "name": "amount",
          "type": "uint256"
        },
        {
          "indexed": false,
          "internalType": "uint256",
          "name": "paysAt",
          "type": "uint256"
        }
      ],
      "name": "IssuedAgreement",
      "type": "event"
    },
    {
      "inputs": [
        {
          "internalType": "address",
          "name": "_protocol",
          "type": "address"
        }
      ],
      "name": "addLendingProtocol",
      "outputs": [],
      "stateMutability": "nonpayable",
      "type": "function"
    },
    {
      "inputs": [
        {
          "internalType": "uint256",
          "name": "",
          "type": "uint256"
        }
      ],
      "name": "agreements",
      "outputs": [
        {
          "internalType": "address",
          "name": "issuer",
          "type": "address"
        },
        {
          "internalType": "address",
          "name": "undertaker",
          "type": "address"
        },
        {
          "internalType": "bytes32",
          "name": "name",
          "type": "bytes32"
        },
        {
          "internalType": "address",
          "name": "payment",
          "type": "address"
        },
        {
          "internalType": "uint256",
          "name": "id",
          "type": "uint256"
        },
        {
          "internalType": "uint256",
          "name": "amount",
          "type": "uint256"
        },
        {
          "internalType": "uint256",
          "name": "term",
          "type": "uint256"
        },
        {
          "internalType": "uint256",
          "name": "issuedAt",
          "type": "uint256"
        },
        {
          "internalType": "uint256",
          "name": "confirmedAt",
          "type": "uint256"
        },
        {
          "internalType": "uint256",
          "name": "paysAt",
          "type": "uint256"
        },
        {
          "internalType": "uint256",
          "name": "endedAt",
          "type": "uint256"
        },
        {
          "internalType": "uint256",
          "name": "nextAgreementId",
          "type": "uint256"
        },
        {
          "internalType": "uint256",
          "name": "paidAt",
          "type": "uint256"
        }
      ],
      "stateMutability": "view",
      "type": "function"
    },
    {
      "inputs": [
        {
          "internalType": "address",
          "name": "_spender",
          "type": "address"
        }
      ],
      "name": "approveof",
      "outputs": [],
      "stateMutability": "nonpayable",
      "type": "function"
    },
    {
      "inputs": [
        {
          "internalType": "uint256",
          "name": "_id",
          "type": "uint256"
        }
      ],
      "name": "claim",
      "outputs": [],
      "stateMutability": "nonpayable",
      "type": "function"
    },
    {
      "inputs": [],
      "name": "claimForLendingProctol",
      "outputs": [],
      "stateMutability": "nonpayable",
      "type": "function"
    },
    {
      "inputs": [
        {
          "internalType": "uint256",
          "name": "_id",
          "type": "uint256"
        }
      ],
      "name": "confirmAgreement",
      "outputs": [],
      "stateMutability": "nonpayable",
      "type": "function"
    },
    {
      "inputs": [
        {
          "internalType": "uint256",
          "name": "_id",
          "type": "uint256"
        }
      ],
      "name": "continueAgreement",
      "outputs": [],
      "stateMutability": "nonpayable",
      "type": "function"
    },
    {
      "inputs": [
        {
          "internalType": "uint256[]",
          "name": "_ids",
          "type": "uint256[]"
        }
      ],
      "name": "continueAgreements",
      "outputs": [],
      "stateMutability": "nonpayable",
      "type": "function"
    },
    {
      "inputs": [
        {
          "internalType": "address",
          "name": "_token",
          "type": "address"
        },
        {
          "internalType": "uint256",
          "name": "_amount",
          "type": "uint256"
        }
      ],
      "name": "deposit",
      "outputs": [],
      "stateMutability": "nonpayable",
      "type": "function"
    },
    {
      "inputs": [
        {
          "internalType": "bytes32",
          "name": "_name",
          "type": "bytes32"
        },
        {
          "internalType": "address",
          "name": "_with",
          "type": "address"
        },
        {
          "internalType": "address",
          "name": "_token",
          "type": "address"
        },
        {
          "internalType": "uint256",
          "name": "_amount",
          "type": "uint256"
        },
        {
          "internalType": "uint256",
          "name": "_term",
          "type": "uint256"
        },
        {
          "internalType": "uint256",
          "name": "_paysAt",
          "type": "uint256"
        }
      ],
      "name": "depositAndissueAgreement",
      "outputs": [],
      "stateMutability": "nonpayable",
      "type": "function"
    },
    {
      "inputs": [
        {
          "internalType": "address",
          "name": "",
          "type": "address"
        },
        {
          "internalType": "address",
          "name": "",
          "type": "address"
        }
      ],
      "name": "depositedAmountMap",
      "outputs": [
        {
          "internalType": "uint256",
          "name": "",
          "type": "uint256"
        }
      ],
      "stateMutability": "view",
      "type": "function"
    },
    {
      "inputs": [
        {
          "internalType": "address",
          "name": "protocol",
          "type": "address"
        }
      ],
      "name": "getIssuersAgreements",
      "outputs": [
        {
          "components": [
            {
              "internalType": "address",
              "name": "issuer",
              "type": "address"
            },
            {
              "internalType": "address",
              "name": "undertaker",
              "type": "address"
            },
            {
              "internalType": "bytes32",
              "name": "name",
              "type": "bytes32"
            },
            {
              "internalType": "address",
              "name": "payment",
              "type": "address"
            },
            {
              "internalType": "uint256",
              "name": "id",
              "type": "uint256"
            },
            {
              "internalType": "uint256",
              "name": "amount",
              "type": "uint256"
            },
            {
              "internalType": "uint256",
              "name": "term",
              "type": "uint256"
            },
            {
              "internalType": "uint256",
              "name": "issuedAt",
              "type": "uint256"
            },
            {
              "internalType": "uint256",
              "name": "confirmedAt",
              "type": "uint256"
            },
            {
              "internalType": "uint256",
              "name": "paysAt",
              "type": "uint256"
            },
            {
              "internalType": "uint256",
              "name": "endedAt",
              "type": "uint256"
            },
            {
              "internalType": "uint256",
              "name": "nextAgreementId",
              "type": "uint256"
            },
            {
              "internalType": "uint256",
              "name": "paidAt",
              "type": "uint256"
            }
          ],
          "internalType": "struct Shiharai.Agreement[]",
          "name": "",
          "type": "tuple[]"
        }
      ],
      "stateMutability": "view",
      "type": "function"
    },
    {
      "inputs": [
        {
          "internalType": "address",
          "name": "_taker",
          "type": "address"
        }
      ],
      "name": "getUnderTakersAgreements",
      "outputs": [
        {
          "components": [
            {
              "internalType": "address",
              "name": "issuer",
              "type": "address"
            },
            {
              "internalType": "address",
              "name": "undertaker",
              "type": "address"
            },
            {
              "internalType": "bytes32",
              "name": "name",
              "type": "bytes32"
            },
            {
              "internalType": "address",
              "name": "payment",
              "type": "address"
            },
            {
              "internalType": "uint256",
              "name": "id",
              "type": "uint256"
            },
            {
              "internalType": "uint256",
              "name": "amount",
              "type": "uint256"
            },
            {
              "internalType": "uint256",
              "name": "term",
              "type": "uint256"
            },
            {
              "internalType": "uint256",
              "name": "issuedAt",
              "type": "uint256"
            },
            {
              "internalType": "uint256",
              "name": "confirmedAt",
              "type": "uint256"
            },
            {
              "internalType": "uint256",
              "name": "paysAt",
              "type": "uint256"
            },
            {
              "internalType": "uint256",
              "name": "endedAt",
              "type": "uint256"
            },
            {
              "internalType": "uint256",
              "name": "nextAgreementId",
              "type": "uint256"
            },
            {
              "internalType": "uint256",
              "name": "paidAt",
              "type": "uint256"
            }
          ],
          "internalType": "struct Shiharai.Agreement[]",
          "name": "",
          "type": "tuple[]"
        }
      ],
      "stateMutability": "view",
      "type": "function"
    },
    {
      "inputs": [
        {
          "internalType": "bytes32",
          "name": "_name",
          "type": "bytes32"
        },
        {
          "internalType": "address",
          "name": "_with",
          "type": "address"
        },
        {
          "internalType": "address",
          "name": "_token",
          "type": "address"
        },
        {
          "internalType": "uint256",
          "name": "_amount",
          "type": "uint256"
        },
        {
          "internalType": "uint256",
          "name": "_term",
          "type": "uint256"
        },
        {
          "internalType": "uint256",
          "name": "_paysAt",
          "type": "uint256"
        }
      ],
      "name": "issueAgreement",
      "outputs": [
        {
          "internalType": "uint256",
          "name": "id",
          "type": "uint256"
        }
      ],
      "stateMutability": "nonpayable",
      "type": "function"
    },
    {
      "inputs": [
        {
          "internalType": "address",
          "name": "",
          "type": "address"
        },
        {
          "internalType": "uint256",
          "name": "",
          "type": "uint256"
        }
      ],
      "name": "issuerAgreementsIds",
      "outputs": [
        {
          "internalType": "uint256",
          "name": "",
          "type": "uint256"
        }
      ],
      "stateMutability": "view",
      "type": "function"
    },
    {
      "inputs": [
        {
          "internalType": "uint256",
          "name": "_id",
          "type": "uint256"
        },
        {
          "internalType": "uint256",
          "name": "payDay",
          "type": "uint256"
        }
      ],
      "name": "modifyPayDay",
      "outputs": [],
      "stateMutability": "nonpayable",
      "type": "function"
    },
    {
      "inputs": [
        {
          "internalType": "uint256",
          "name": "",
          "type": "uint256"
        }
      ],
      "name": "redeemedAmountMap",
      "outputs": [
        {
          "internalType": "address",
          "name": "token",
          "type": "address"
        },
        {
          "internalType": "uint256",
          "name": "amount",
          "type": "uint256"
        }
      ],
      "stateMutability": "view",
      "type": "function"
    },
    {
      "inputs": [
        {
          "internalType": "address",
          "name": "",
          "type": "address"
        },
        {
          "internalType": "address",
          "name": "",
          "type": "address"
        }
      ],
      "name": "reservedAmount",
      "outputs": [
        {
          "internalType": "uint256",
          "name": "",
          "type": "uint256"
        }
      ],
      "stateMutability": "view",
      "type": "function"
    },
    {
      "inputs": [
        {
          "internalType": "address",
          "name": "_address",
          "type": "address"
        }
      ],
      "name": "setSupportedToken",
      "outputs": [],
      "stateMutability": "nonpayable",
      "type": "function"
    },
    {
      "inputs": [
        {
          "internalType": "address",
          "name": "",
          "type": "address"
        }
      ],
      "name": "supportedTokensMap",
      "outputs": [
        {
          "internalType": "address",
          "name": "",
          "type": "address"
        }
      ],
      "stateMutability": "view",
      "type": "function"
    },
    {
      "inputs": [
        {
          "internalType": "address",
          "name": "",
          "type": "address"
        },
        {
          "internalType": "uint256",
          "name": "",
          "type": "uint256"
        }
      ],
      "name": "undertakenAgreementIds",
      "outputs": [
        {
          "internalType": "uint256",
          "name": "",
          "type": "uint256"
        }
      ],
      "stateMutability": "view",
      "type": "function"
    },
    {
      "inputs": [
        {
          "internalType": "uint256",
          "name": "",
          "type": "uint256"
        }
      ],
      "name": "vestingConditionMap",
      "outputs": [
        {
          "internalType": "uint256",
          "name": "cliff",
          "type": "uint256"
        },
        {
          "internalType": "uint256",
          "name": "duration",
          "type": "uint256"
        },
        {
          "internalType": "uint256",
          "name": "revokeDays",
          "type": "uint256"
        }
      ],
      "stateMutability": "view",
      "type": "function"
    },
    {
      "inputs": [
        {
          "internalType": "uint256",
          "name": "_id",
          "type": "uint256"
        }
      ],
      "name": "withdrawalAgreement",
      "outputs": [],
      "stateMutability": "nonpayable",
      "type": "function"
    }
  ],
  "bytecode": "0x608060405234801561001057600080fd5b506040516200315a3803806200315a83398101604081905261003191610037565b50610065565b600060208284031215610048578081fd5b81516001600160a01b038116811461005e578182fd5b9392505050565b6130e580620000756000396000f3fe60806040523480156200001157600080fd5b5060043610620001695760003560e01c806389e0a68311620000d3578063ca72595c1162000086578063ca72595c1462000450578063d345ad57146200049e578063ddecc1fd14620004b5578063dfd5268d14620004cc578063eb5c68e714620004e3578063f2c3731a14620004fa57600080fd5b806389e0a68314620001c657806398776efa14620001c8578063b7e3ee8f14620002f9578063bc2f2dcf1462000327578063bd14de96146200033e578063c5fcfbbc146200043957600080fd5b8063424690bb116200012c578063424690bb14620001f357806347e7ef24146200024957806353dc7813146200026057806363cdf5dd14620002a55780637c05798c14620002bc578063853d105e14620002d357600080fd5b806310ac0adc146200016e57806317c4e3051462000198578063379607f514620001af5780633ecfebcd14620001c85780633f270e6214620001dc575b600080fd5b620001856200017f36600462001c91565b62000528565b6040519081526020015b60405180910390f35b62000185620001a936600462001d92565b6200055a565b620001c6620001c036600462001e80565b62000580565b005b620001c6620001d936600462001c36565b50565b620001c6620001ed36600462001cbd565b62000aa8565b620002296200020436600462001e80565b600460205260009081526040902080546001909101546001600160a01b039091169082565b604080516001600160a01b0390931683526020830191909152016200018f565b620001c66200025a36600462001c91565b62000b01565b6200028c6200027136600462001c36565b6001602052600090815260409020546001600160a01b031681565b6040516001600160a01b0390911681526020016200018f565b62000185620002b636600462001c91565b62000d97565b620001c6620002cd36600462001e80565b62000db4565b620002ea620002e436600462001c36565b62000fd3565b6040516200018f919062001f02565b620001856200030a36600462001c5a565b600260209081526000928352604080842090915290825290205481565b620001c66200033836600462001c36565b620011a6565b620003c66200034f36600462001e80565b600660208190526000918252604090912080546001820154600283015460038401546004850154600586015496860154600787015460088801546009890154600a8a0154600b8b0154600c909b01546001600160a01b039a8b169c998b169b989a909716989597959694959394929391929091908d565b604080516001600160a01b039e8f1681529c8e1660208e01528c019a909a529a90971660608a0152608089019590955260a088019390935260c087019190915260e08601526101008501526101208401526101408301526101608201929092526101808101919091526101a0016200018f565b620001c66200044a36600462001eb2565b620011e3565b620004826200046136600462001e80565b60056020526000908152604090208054600182015460029092015490919083565b604080519384526020840192909252908201526060016200018f565b620001c6620004af36600462001e80565b62001297565b620001c6620004c636600462001e80565b620014b1565b620002ea620004dd36600462001c36565b62001565565b620001c6620004f436600462001d92565b6200172f565b620001856200050b36600462001c5a565b600360209081526000928352604080842090915290825290205481565b600760205281600052604060002081815481106200054557600080fd5b90600052602060002001600091509150505481565b60008054600101808255620005758189898989898962001754565b979650505050505050565b6000818152600660205260409020600101546001600160a01b03163314620005ef5760405162461bcd60e51b815260206004820152601b60248201527f494e56414c49443a204e4f542054484520554e44455254414b4552000000000060448201526064015b60405180910390fd5b6000818152600660205260409020600c015415620006505760405162461bcd60e51b815260206004820152601860248201527f494e56414c49443a20414c525741445920434c41494d454400000000000000006044820152606401620005e6565b60008181526006602052604081206003015462000676906001600160a01b0316620019e2565b600083815260066020526040908190206005015490516370a0823160e01b8152336004820152919250906001600160a01b038316906370a082319060240160206040518083038186803b158015620006cd57600080fd5b505afa158015620006e2573d6000803e3d6000fd5b505050506040513d601f19601f8201168201806040525081019062000708919062001e99565b1015620007515760405162461bcd60e51b815260206004820152601660248201527518d51bdad95b881a5cc81a5b9cdd59999a58da595b9d60521b6044820152606401620005e6565b600082815260066020526040902060090154421015620007b45760405162461bcd60e51b815260206004820152601760248201527f494e56414c49443a204245464f524520504159204441590000000000000000006044820152606401620005e6565b6000828152600660205260408082206005015490516323b872dd60e01b815233600482015230602482015260448101919091526001600160a01b038316906323b872dd90606401602060405180830381600087803b1580156200081657600080fd5b505af11580156200082b573d6000803e3d6000fd5b505050506040513d601f19601f8201168201806040525081019062000851919062001d70565b9050806200089b5760405162461bcd60e51b815260206004820152601660248201527518d51bdad95b881514905394d191548811905253115160521b6044820152606401620005e6565b60008381526006602052604090819020600501549051630852cd8d60e31b815260048101919091526001600160a01b038316906342966c6890602401600060405180830381600087803b158015620008f257600080fd5b505af115801562000907573d6000803e3d6000fd5b5050506000848152600660209081526040808320600581015481546001600160a01b03908116865260028552838620600390930154168552925282208054919350919062000957908490620020c4565b90915550506000838152600660205260408082206003810154600590910154915163a9059cbb60e01b815233600482015260248101929092526001600160a01b03169063a9059cbb90604401602060405180830381600087803b158015620009be57600080fd5b505af1158015620009d3573d6000803e3d6000fd5b505050506040513d601f19601f82011682018060405250810190620009f9919062001d70565b90508062000a435760405162461bcd60e51b81526020600482015260166024820152751bd51bdad95b881514905394d191548811905253115160521b6044820152606401620005e6565b60008481526006602090815260409182902042600c820155600381015460059091015492519283526001600160a01b03169133917ff7a40077ff7a04c7e61f6f26fb13774259ddf1b6bce9ecf26a8276cdd3992683910160405180910390a350505050565b60005b815181101562000afd5762000ae882828151811062000ada57634e487b7160e01b600052603260045260246000fd5b602002602001015162001297565b8062000af48162002111565b91505062000aab565b5050565b6040516370a0823160e01b8152336004820152829082906001600160a01b038316906370a082319060240160206040518083038186803b15801562000b4557600080fd5b505afa15801562000b5a573d6000803e3d6000fd5b505050506040513d601f19601f8201168201806040525081019062000b80919062001e99565b101562000ba15760405162461bcd60e51b8152600401620005e6906200201a565b6040516323b872dd60e01b8152336004820152306024820152604481018390526000906001600160a01b038316906323b872dd90606401602060405180830381600087803b15801562000bf357600080fd5b505af115801562000c08573d6000803e3d6000fd5b505050506040513d601f19601f8201168201806040525081019062000c2e919062001d70565b90508062000c6b5760405162461bcd60e51b815260206004820152600960248201526815160811905253115160ba1b6044820152606401620005e6565b3360009081526002602090815260408083206001600160a01b03881684529091528120805485929062000ca0908490620020a9565b90915550503360009081526003602090815260408083206001600160a01b03881684529091528120805485929062000cda908490620020a9565b909155506000905062000ced85620019e2565b60405163140e25ad60e31b8152600481018690529091506001600160a01b0382169063a0712d6890602401600060405180830381600087803b15801562000d3357600080fd5b505af115801562000d48573d6000803e3d6000fd5b5050604080516001600160a01b0389168152602081018890523393507f5548c837ab068cf56a2c2479df0882a4922fd203edb7517321831d95078c5f6292500160405180910390a25050505050565b600860205281600052604060002081815481106200054557600080fd5b6000818152600660205260409020600801541562000e155760405162461bcd60e51b815260206004820152601a60248201527f494e56414c49443a20414c524541445920434f4e4649524d45440000000000006044820152606401620005e6565b6000818152600660205260409020600101546001600160a01b0316331462000e805760405162461bcd60e51b815260206004820152601b60248201527f494e56414c49443a204e4f542054484520554e44455254414b455200000000006044820152606401620005e6565b60008181526006602052604081204260088201556003015462000eac906001600160a01b0316620019e2565b6000838152600660205260409081902060050154905163a9059cbb60e01b815233600482015260248101919091529091506001600160a01b0382169063a9059cbb90604401602060405180830381600087803b15801562000f0c57600080fd5b505af115801562000f21573d6000803e3d6000fd5b505050506040513d601f19601f8201168201806040525081019062000f47919062001d70565b506000828152600660209081526040918290206001810154815460038301546005840154600985015460089095015487516001600160a01b03938416815296870191909152958501939093526060840194909452811692169084907fb4d318a8a204c9eda7265933f1525cff9215734f0c16ab972bee558391a77f579060800160405180910390a45050565b6001600160a01b038116600090815260076020526040812054606091808267ffffffffffffffff8111156200101857634e487b7160e01b600052604160045260246000fd5b6040519080825280602002602001820160405280156200105557816020015b6200104162001b85565b815260200190600190039081620010375790505b50905060005b838110156200119d576001600160a01b03861660009081526007602052604090208054829081106200109d57634e487b7160e01b600052603260045260246000fd5b6000918252602080832090910154808352600680835260409384902084516101a08101865281546001600160a01b03908116825260018301548116958201959095526002820154958101959095526003810154909316606085015260048301546080850152600583015460a085015282015460c0840152600782015460e084015260088201546101008401526009820154610120840152600a820154610140840152600b820154610160840152600c9091015461018083015283519094508390839081106200117c57634e487b7160e01b600052603260045260246000fd5b60200260200101819052508080620011949062002111565b9150506200105b565b50949350505050565b6000620011b382620019e2565b6001600160a01b03928316600090815260016020526040902080546001600160a01b031916919093161790915550565b60008281526006602052604090205482906001600160a01b031633146200121e5760405162461bcd60e51b8152600401620005e69062002047565b600083815260066020526040902060090154821115620012815760405162461bcd60e51b815260206004820152601860248201527f494e56414c49443a205345542045414c494552204441544500000000000000006044820152606401620005e6565b5060009182526006602052604090912060090155565b60008181526006602052604090205481906001600160a01b03163314620012d25760405162461bcd60e51b8152600401620005e69062002047565b60008281526006602090815260408083206005810154338552600284528285206003909201546001600160a01b0316855292529091205410156200132a5760405162461bcd60e51b8152600401620005e6906200201a565b6000828152600660209081526040808320600581015433855260038085528386209201546001600160a01b031685529252909120541015620013a65760405162461bcd60e51b8152602060048201526014602482015273125394d551919250d25153950811115413d4d25560621b6044820152606401620005e6565b6000828152600660208190526040822060028101546001820154600383015460058401549484015460099094015462278d009695620013fe956001600160a01b0394851694909316929091620001a9908990620020a9565b60008581526006602052604080822042600a8201819055600b90910184905583835291819020600181015460038201546005830154600990930154935195965093946001600160a01b0391821694339488947fa3e5d961235299312910753523a415eda025cbcd63ecf1fba9a62bb90ac59d9794620014a2948e9490911692909384526001600160a01b039290921660208401526040830152606082015260800190565b60405180910390a45050505050565b60008181526006602052604090205481906001600160a01b03163314620014ec5760405162461bcd60e51b8152600401620005e69062002047565b6000828152600660205260409020600a0154156200154d5760405162461bcd60e51b815260206004820152601b60248201527f494e56414c49443a20414c5245414459205445524d494e4154454400000000006044820152606401620005e6565b50600090815260066020526040902042600a90910155565b6001600160a01b038116600090815260086020526040812054606091808267ffffffffffffffff811115620015aa57634e487b7160e01b600052604160045260246000fd5b604051908082528060200260200182016040528015620015e757816020015b620015d362001b85565b815260200190600190039081620015c95790505b50905060005b838110156200119d576001600160a01b03861660009081526008602052604090208054829081106200162f57634e487b7160e01b600052603260045260246000fd5b6000918252602080832090910154808352600680835260409384902084516101a08101865281546001600160a01b03908116825260018301548116958201959095526002820154958101959095526003810154909316606085015260048301546080850152600583015460a085015282015460c0840152600782015460e084015260088201546101008401526009820154610120840152600a820154610140840152600b820154610160840152600c9091015461018083015283519094508390839081106200170e57634e487b7160e01b600052603260045260246000fd5b60200260200101819052508080620017269062002111565b915050620015ed565b6200173b848462000b01565b6200174b8686868686866200055a565b50505050505050565b3360009081526002602090815260408083206001600160a01b03881684529091529020548311156200179a5760405162461bcd60e51b8152600401620005e6906200201a565b3360009081526003602090815260408083206001600160a01b0388168452909152902054831115620018065760405162461bcd60e51b8152602060048201526014602482015273125394d551919250d25153950811115413d4d25560621b6044820152606401620005e6565b604080516101a081018252338082526001600160a01b038881166020808501919091528385018b905290881660608401819052608084018c905260a0840188905260c084018790524260e085018190526000610100860181905261012086018890526101408601819052610160860181905261018086018190529384526003835285842091845291529281208054879290620018a4908490620020c4565b9091555050336000818152600760208181526040808420805460018082018355918652838620018f90558e8552600680845294829020875181546001600160a01b03199081166001600160a01b039283161783558986015193830180548216948316949094179093558884015160028301556060808a0151600384018054909516908316179093556080890151600483015560a0890151600583015560c08901519682019690965560e08801519481019490945561010087015160088501556101208701516009850155610140870151600a850155610160870151600b850155610180870151600c9094019390935580518b851681529182018a90528101879052918a1692918c917f25a8583ed9646d64deb905da2e2227b191e906e67fcc5b34d08ed0237b1685e0910160405180910390a4505050505050505050565b6001600160a01b03808216600090815260016020526040812054909183911662001b65576000816001600160a01b03166306fdde036040518163ffffffff1660e01b815260040160006040518083038186803b15801562001a4257600080fd5b505afa15801562001a57573d6000803e3d6000fd5b505050506040513d6000823e601f3d908101601f1916820160405262001a81919081019062001dee565b826001600160a01b03166395d89b416040518163ffffffff1660e01b815260040160006040518083038186803b15801562001abb57600080fd5b505afa15801562001ad0573d6000803e3d6000fd5b505050506040513d6000823e601f3d908101601f1916820160405262001afa919081019062001dee565b8560405162001b099062001c0b565b62001b179392919062001fd8565b604051809103906000f08015801562001b34573d6000803e3d6000fd5b506001600160a01b0380861660009081526001602052604090208054919092166001600160a01b0319909116179055505b50506001600160a01b039081166000908152600160205260409020541690565b604051806101a0016040528060006001600160a01b0316815260200160006001600160a01b031681526020016000801916815260200160006001600160a01b031681526020016000815260200160008152602001600081526020016000815260200160008152602001600081526020016000815260200160008152602001600081525090565b610f54806200215c83390190565b80356001600160a01b038116811462001c3157600080fd5b919050565b60006020828403121562001c48578081fd5b62001c538262001c19565b9392505050565b6000806040838503121562001c6d578081fd5b62001c788362001c19565b915062001c886020840162001c19565b90509250929050565b6000806040838503121562001ca4578182fd5b62001caf8362001c19565b946020939093013593505050565b6000602080838503121562001cd0578182fd5b823567ffffffffffffffff8082111562001ce8578384fd5b818501915085601f83011262001cfc578384fd5b81358181111562001d115762001d1162002145565b8060051b915062001d2484830162002075565b8181528481019084860184860187018a101562001d3f578788fd5b8795505b8386101562001d6357803583526001959095019491860191860162001d43565b5098975050505050505050565b60006020828403121562001d82578081fd5b8151801515811462001c53578182fd5b60008060008060008060c0878903121562001dab578182fd5b8635955062001dbd6020880162001c19565b945062001dcd6040880162001c19565b9350606087013592506080870135915060a087013590509295509295509295565b60006020828403121562001e00578081fd5b815167ffffffffffffffff8082111562001e18578283fd5b818401915084601f83011262001e2c578283fd5b81518181111562001e415762001e4162002145565b62001e56601f8201601f191660200162002075565b915080825285602082850101111562001e6d578384fd5b6200119d816020840160208601620020de565b60006020828403121562001e92578081fd5b5035919050565b60006020828403121562001eab578081fd5b5051919050565b6000806040838503121562001ec5578182fd5b50508035926020909101359150565b6000815180845262001eee816020860160208601620020de565b601f01601f19169290920160200192915050565b602080825282518282018190526000919060409081850190868401855b8281101562001fcb57815180516001600160a01b039081168652878201518116888701528682015187870152606080830151909116908601526080808201519086015260a0808201519086015260c0808201519086015260e08082015190860152610100808201519086015261012080820151908601526101408082015190860152610160808201519086015261018090810151908501526101a0909301929085019060010162001f1f565b5091979650505050505050565b60608152600062001fed606083018662001ed4565b828103602084015262002001818662001ed4565b91505060018060a01b0383166040830152949350505050565b602080825260139082015272125394d551919250d251539508105353d55395606a1b604082015260600190565b602080825260149082015273494e564c4149443a204f4e4c592049535355524560601b604082015260600190565b604051601f8201601f1916810167ffffffffffffffff81118282101715620020a157620020a162002145565b604052919050565b60008219821115620020bf57620020bf6200212f565b500190565b600082821015620020d957620020d96200212f565b500390565b60005b83811015620020fb578181015183820152602001620020e1565b838111156200210b576000848401525b50505050565b60006000198214156200212857620021286200212f565b5060010190565b634e487b7160e01b600052601160045260246000fd5b634e487b7160e01b600052604160045260246000fdfe60806040523480156200001157600080fd5b5060405162000f5438038062000f5483398101604081905262000034916200020e565b8260405160200162000047919062000297565b6040516020818303038152906040528260405160200162000069919062000297565b60408051601f1981840301815291905281516200008e906003906020850190620000d9565b508051620000a4906004906020840190620000d9565b5050600580546001600160a01b039093166001600160a01b031993841617905550600680549091163317905550620003489050565b828054620000e790620002f5565b90600052602060002090601f0160209004810192826200010b576000855562000156565b82601f106200012657805160ff191683800117855562000156565b8280016001018555821562000156579182015b828111156200015657825182559160200191906001019062000139565b506200016492915062000168565b5090565b5b8082111562000164576000815560010162000169565b600082601f83011262000190578081fd5b81516001600160401b0380821115620001ad57620001ad62000332565b604051601f8301601f19908116603f01168101908282118183101715620001d857620001d862000332565b81604052838152866020858801011115620001f1578485fd5b62000204846020830160208901620002c2565b9695505050505050565b60008060006060848603121562000223578283fd5b83516001600160401b03808211156200023a578485fd5b62000248878388016200017f565b945060208601519150808211156200025e578384fd5b506200026d868287016200017f565b604086015190935090506001600160a01b03811681146200028c578182fd5b809150509250925092565b606360f81b815260008251620002b5816001850160208701620002c2565b9190910160010192915050565b60005b83811015620002df578181015183820152602001620002c5565b83811115620002ef576000848401525b50505050565b600181811c908216806200030a57607f821691505b602082108114156200032c57634e487b7160e01b600052602260045260246000fd5b50919050565b634e487b7160e01b600052604160045260246000fd5b610bfc80620003586000396000f3fe608060405234801561001057600080fd5b50600436106100f55760003560e01c806342966c6811610097578063a457c2d711610066578063a457c2d714610206578063a9059cbb14610219578063c45a01551461022c578063dd62ed3e1461023f57600080fd5b806342966c68146101ad57806370a08231146101c257806395d89b41146101eb578063a0712d68146101f357600080fd5b80631a32aad6116100d35780631a32aad61461014d57806323b872dd14610178578063313ce5671461018b578063395093511461019a57600080fd5b806306fdde03146100fa578063095ea7b31461011857806318160ddd1461013b575b600080fd5b610102610252565b60405161010f9190610af3565b60405180910390f35b61012b610126366004610ab2565b6102e4565b604051901515815260200161010f565b6002545b60405190815260200161010f565b600554610160906001600160a01b031681565b6040516001600160a01b03909116815260200161010f565b61012b610186366004610a77565b6102fc565b6040516012815260200161010f565b61012b6101a8366004610ab2565b610320565b6101c06101bb366004610adb565b610342565b005b61013f6101d0366004610a24565b6001600160a01b031660009081526020819052604090205490565b61010261034f565b6101c0610201366004610adb565b61035e565b61012b610214366004610ab2565b6103c2565b61012b610227366004610ab2565b61043d565b600654610160906001600160a01b031681565b61013f61024d366004610a45565b61044b565b60606003805461026190610b75565b80601f016020809104026020016040519081016040528092919081815260200182805461028d90610b75565b80156102da5780601f106102af576101008083540402835291602001916102da565b820191906000526020600020905b8154815290600101906020018083116102bd57829003601f168201915b5050505050905090565b6000336102f2818585610476565b5060019392505050565b60003361030a85828561059b565b610315858585610615565b506001949350505050565b6000336102f2818585610333838361044b565b61033d9190610b46565b610476565b61034c33826107e3565b50565b60606004805461026190610b75565b6006546001600160a01b031633146103ac5760405162461bcd60e51b815260206004820152600c60248201526b4f4e4c5920466163746f727960a01b60448201526064015b60405180910390fd5b60065461034c906001600160a01b031682610929565b600033816103d0828661044b565b9050838110156104305760405162461bcd60e51b815260206004820152602560248201527f45524332303a2064656372656173656420616c6c6f77616e63652062656c6f77604482015264207a65726f60d81b60648201526084016103a3565b6103158286868403610476565b6000336102f2818585610615565b6001600160a01b03918216600090815260016020908152604080832093909416825291909152205490565b6001600160a01b0383166104d85760405162461bcd60e51b8152602060048201526024808201527f45524332303a20617070726f76652066726f6d20746865207a65726f206164646044820152637265737360e01b60648201526084016103a3565b6001600160a01b0382166105395760405162461bcd60e51b815260206004820152602260248201527f45524332303a20617070726f766520746f20746865207a65726f206164647265604482015261737360f01b60648201526084016103a3565b6001600160a01b0383811660008181526001602090815260408083209487168084529482529182902085905590518481527f8c5be1e5ebec7d5bd14f71427d1e84f3dd0314c0f7b2291e5b200ac8c7c3b92591015b60405180910390a3505050565b60006105a7848461044b565b9050600019811461060f57818110156106025760405162461bcd60e51b815260206004820152601d60248201527f45524332303a20696e73756666696369656e7420616c6c6f77616e636500000060448201526064016103a3565b61060f8484848403610476565b50505050565b6001600160a01b0383166106795760405162461bcd60e51b815260206004820152602560248201527f45524332303a207472616e736665722066726f6d20746865207a65726f206164604482015264647265737360d81b60648201526084016103a3565b6001600160a01b0382166106db5760405162461bcd60e51b815260206004820152602360248201527f45524332303a207472616e7366657220746f20746865207a65726f206164647260448201526265737360e81b60648201526084016103a3565b6001600160a01b038316600090815260208190526040902054818110156107535760405162461bcd60e51b815260206004820152602660248201527f45524332303a207472616e7366657220616d6f756e7420657863656564732062604482015265616c616e636560d01b60648201526084016103a3565b6001600160a01b0380851660009081526020819052604080822085850390559185168152908120805484929061078a908490610b46565b92505081905550826001600160a01b0316846001600160a01b03167fddf252ad1be2c89b69c2b068fc378daa952ba7f163c4a11628f55a4df523b3ef846040516107d691815260200190565b60405180910390a361060f565b6001600160a01b0382166108435760405162461bcd60e51b815260206004820152602160248201527f45524332303a206275726e2066726f6d20746865207a65726f206164647265736044820152607360f81b60648201526084016103a3565b6001600160a01b038216600090815260208190526040902054818110156108b75760405162461bcd60e51b815260206004820152602260248201527f45524332303a206275726e20616d6f756e7420657863656564732062616c616e604482015261636560f01b60648201526084016103a3565b6001600160a01b03831660009081526020819052604081208383039055600280548492906108e6908490610b5e565b90915550506040518281526000906001600160a01b038516907fddf252ad1be2c89b69c2b068fc378daa952ba7f163c4a11628f55a4df523b3ef9060200161058e565b6001600160a01b03821661097f5760405162461bcd60e51b815260206004820152601f60248201527f45524332303a206d696e7420746f20746865207a65726f20616464726573730060448201526064016103a3565b80600260008282546109919190610b46565b90915550506001600160a01b038216600090815260208190526040812080548392906109be908490610b46565b90915550506040518181526001600160a01b038316906000907fddf252ad1be2c89b69c2b068fc378daa952ba7f163c4a11628f55a4df523b3ef9060200160405180910390a35050565b80356001600160a01b0381168114610a1f57600080fd5b919050565b600060208284031215610a35578081fd5b610a3e82610a08565b9392505050565b60008060408385031215610a57578081fd5b610a6083610a08565b9150610a6e60208401610a08565b90509250929050565b600080600060608486031215610a8b578081fd5b610a9484610a08565b9250610aa260208501610a08565b9150604084013590509250925092565b60008060408385031215610ac4578182fd5b610acd83610a08565b946020939093013593505050565b600060208284031215610aec578081fd5b5035919050565b6000602080835283518082850152825b81811015610b1f57858101830151858201604001528201610b03565b81811115610b305783604083870101525b50601f01601f1916929092016040019392505050565b60008219821115610b5957610b59610bb0565b500190565b600082821015610b7057610b70610bb0565b500390565b600181811c90821680610b8957607f821691505b60208210811415610baa57634e487b7160e01b600052602260045260246000fd5b50919050565b634e487b7160e01b600052601160045260246000fdfea264697066735822122033fbcd0f9e88217aaee4336e0889584945abbc68d2dc73c4032fa2479e9e29ff64736f6c63430008040033a264697066735822122074c582b807943ca564fd6592a29dfd44aac9401532dbb86757fb68c188edf19d64736f6c63430008040033",
  "linkReferences": {},
  "deployedLinkReferences": {}
}